:02000002E0001C
:10C0000000000420F9C20E0021C30E0023C30E005D
:10C0100025C30E0027C30E0029C30E000000000038
:10C020000000000000000000000000002BC30E0014
:10C030002DC30E00000000002FC30E0031C30E0000
:10C04000E9FE0E0033C30E0033C30E0033C30E00EF
:10C0500033C30E0033C30E0033C30E0033C30E00D0
:10C0600033C30E0033C30E0033C30E0033C30E00C0
:10C0700033C30E0033C30E0033C30E0033C30E00B0
:10C08000991F0F0033C30E0033C30E0033C30E00DD
:10C0900033C30E0033C30E0033C30E0033C30E0090
:10C0A00033C30E0033C30E0033C30E0033C30E0080
:10C0B00033C30E0033C30E00000000000000000078
:10C0C00033C30E0033C30E0033C30E0033C30E0060
:10C0D00061190F0033C30E0033C30E00B10D0F0002
:10C0E00033C30E0033C30E00A5600F000000000034
:10C0F0000000000033C30E000000000033C30E0038
:10C10000000000000000000000000000000000002F
:10C11000000000000000000000000000000000001F
:10C12000000000000000000000000000000000000F
:10C1300000000000000000000000000000000000FF
:10C1400000000000000000000000000000000000EF
:10C1500000000000000000000000000000000000DF
:10C1600000000000000000000000000000000000CF
:10C1700000000000000000000000000000000000BF
:10C1800000000000000000000000000000000000AF
:10C19000000000000000000000000000000000009F
:10C1A000000000000000000000000000000000008F
:10C1B000000000000000000000000000000000007F
:10C1C000000000000000000000000000000000006F
:10C1D000000000000000000000000000000000005F
:10C1E000000000000000000000000000000000004F
:10C1F000000000000000000000000000000000003F
:10C200000348044B834202D0034B03B118477047E5
:10C21000BC000020BC0000200000000005480649CA
:10C22000091A891001EBD171491002D0034B03B1F7
:10C2300018477047BC000020BC0000200000000030
:10C2400010B5064C237843B9FFF7DAFF044B13B15E
:10C250000448AFF300800123237010BDD0000020FC
:10C26000000000004C9C0F0008B5044B1BB10449B2
:10C270000448AFF30080BDE80840CFE700000000AD
:10C28000D40000204C9C0F00A3F5803A704700BFFB
:10C29000154B002B08BF114B9D46FFF7F5FF002102
:10C2A0008B460F461148124A121A0AF097F80C4BA7
:10C2B000002B00D098470B4B002B00D09847002054
:10C2C000002104000D000B4809F0FEFE09F030FFCC
:10C2D0002000290005F046F809F0FCFE00000800E7
:10C2E000000000000000000000000420D00000203A
:10C2F000CC930020FD600F000649074A074B9B1AAC
:10C3000003DD043BC858D050FBDC00F0F7FEFFF71C
:10C31000BFFF0000289D0F0008000020D000002073
:10C32000FEE7FEE7FEE7FEE7FEE7FEE7FEE7FEE7E5
:10C33000FEE7FEE70020704738B504462B482C4D39
:10C3400002F098FF2B4B29481C6002F0AAFF2A4BF1
:10C35000ED1AED082D0438B9284945F0010000F028
:10C3600063FC0324204638BD254B002140F6030220
:10C370000330C3E9021258601970224B22495960F8
:10C38000224945F00405C3E90212214A1A612149F4
:10C39000214A5A61284600F047FC03F0A3FB852898
:10C3A000044601D00028DDD1002003F0F9FB04464B
:10C3B0000028D7D102F06EFE184801F05BFA04465F
:10C3C0000028CFD1164801F0FDFA04460028C9D153
:10C3D0001449284600F028FC01F0BEFA0446002863
:10C3E000C0D11149284600F01FFCBBE7E89C0F00B4
:10C3F000C09C0F0074010020609C0F00F3730F00BD
:10C40000181A0020001A002039C40E002DC40E0096
:10C41000A819002014740F00589C0F0054740F00CA
:10C42000BC730F002A740F0037740F00011F0148FE
:10C4300002F059BFE89C0F0013B5074C01AB0A4648
:10C440000146204603F0BEFA019A0448214602F054
:10C45000A1FA02B010BD00BF8F190020BC730F00FD
:10C4600001F010BC083810B506283ED8DFE800F00F
:10C47000081E2F3D3D3D0400BDE8104001F086BA86
:10C480001A4B1B481B49C01AC008000440F00300A7
:10C4900000F0CAFB04F0BEF908B901F075FA164BBA
:10C4A0001B6813B30120BDE8104018470F4B10481C
:10C4B0001249C01AC008000440F0030000F0B4FBA9
:10C4C00001F076FA0C4B1B687BB10220EBE7074BBF
:10C4D00007480B49C01AC008000440F0030000F0F0
:10C4E000A3FBBDE8104001F053BA10BD609C0F00E3
:10C4F000C09C0F0060740F007401002073740F0063
:10C5000085740F0008B503781BB9BDE8084001F039
:10C51000B9BB094A042101F023F858B1074B084878
:10C520000849C01AC008000440F00100BDE80840F6
:10C5300000F07ABB08BD00BF61C40E00609C0F0014
:10C54000C09C0F008F740F002DE9F04799B10229AC
:10C550003BD101222349244802F03EFA234A244BCE
:10C5600024499B1ADB081B040246BDE8F04743F050
:10C57000020000F05DBB1E481C4BDFF868801E4DBA
:10C58000DFF884A0C01AC008000440F0040940F09D
:10C59000010498F80010184803F048FA074668B9F3
:10C5A000D5E90112504608F00BFA144802F079FE62
:10C5B000064660B91249204600F036FB012241468A
:10C5C000094802F009FA0028E3D0BDE8F0870246E6
:10C5D0000C494846033600F02BFBC5E901672F7074
:10C5E000ECE700BFC0190020BC730F00609C0F0077
:10C5F000C09C0F0064730F00181A0020E89C0F0005
:10C600008A730F00A5730F00001A00207047000006
:10C6100007B5044B0093044A402300F032F803B0FE
:10C620005DF804FB2DC60E00291A00202DE9F84301
:10C6300089461446B2B10F4B0F4E0325002743F035
:10C640000108224609EB0701002008F0B1FA07446F
:10C65000241A48B933782BB14FF47A40C047013DD2
:10C6600002D13570BDE8F88301233370002CE8D186
:10C67000F8E700BFB0740F00281A0020704708F0D8
:10C68000CBBAF0B595B01C46164608460D4603F0E9
:10C690003BF91A9B0D93CDE9086400242346082238
:10C6A00005A928460A948DF82C400C9403F049F90A
:10C6B000079B0293069B03939DF814308DF811405D
:10C6C00003F00302012A1DD1BDF81440059EC3F3F7
:10C6D000C203C4F383148DF81030A20008230EA9FE
:10C6E000284603F02EF9C6F3952608AB00932246A0
:10C6F00002AB0EA9304600F0D3FB284603F008F940
:10C7000015B0F0BD022AF8D1BDF81640C3F3C2033C
:10C71000A4098DF810300827082C264628BF0826C3
:10C720003B4632460EA9284603F00BF9A41B08AB82
:10C7300002AA31460EA8374400F016FC002CEBD1BB
:10C74000DBE7000008B5FFF79AFF0421034800F07B
:10C750000DFB034B01225A7108BD00BF109D0F0055
:10C760000C000020037813F0040216D003F003033A
:10C77000012B03D0022B09D0012070470A680088E2
:10C780000232C0F3831002440A60F5E70B68428866
:10C79000023303EB92130B60EEE710467047000084
:10C7A0002DE9F04F044685B0851C00200E469046CA
:10C7B00002F0E8FC414A506830609368404E03F54F
:10C7C00080531B1A9246A6F10409A6F10807AB4252
:10C7D00019D30023B8F1000F6AD0052262F30703D2
:10C7E00064F38913DAF80420C2F30B010331154412
:10C7F0004AF821300020CAF8045002F0C5FC01209C
:10C8000005B0BDE8F08F0121304602F011FD484629
:10C8100002F027FD384602F024FDDAF80800009007
:10C82000C0F30B0003300AEB80006946FFF79AFF64
:10C83000009B40BBC3F30B020AEB8202D16801915B
:10C840009A1C0133C3F30B030AEB83030092D3F862
:10C850000CB001F00303012B22D0022B16D083462B
:10C86000384602F001FD10B1009BCAF80830594665
:10C87000304602F0DDFCDAF80830DAF8042003F57F
:10C8800080539B1AA3E7C3F30B00CBE7BDF8063038
:10C890009B0903334FEA1B4B02EB93030093DFE743
:10C8A000BDF80430C3F383134FEA1B4B1344F5E781
:10C8B000062262F3070364F39F5393E73C1B0020B7
:10C8C000585B0020064B074810B500221A7002F092
:10C8D000D4FF044610B9044803F03DF8204610BDCB
:10C8E0003C1B0020FC9C0F00D4740F0030B50A4C98
:10C8F00071B10A4A0A49121BD20800239A4201D197
:10C90000002030BD31F82350854202D00133F5E7D5
:10C91000034654F83300F4E7609C0F00E89C0F00D6
:10C92000D0000020094B013903EBC000032909D8CE
:10C93000DFE801F00A02040604207047007970471E
:10C94000407970470020704702207047609C0F00BC
:10C9500070470000034BD3E90130C31A58425841D5
:10C96000704700BF3C1B00202DE9FF41FFF7F2FF9D
:10C970000546002840F0F180794C44F21803E0505D
:10C98000BFF34F8FA0680090C0F30B000330754ECB
:10C9900004EB80006946FFF7E5FE009B10B13268AA
:10C9A000002A59D0C3F30B02991C013304EB820215
:10C9B000C3F30B0304EB8303D268DB68029302F03A
:10C9C0000303022B0192009157D1BDF8063066484F
:10C9D0004FEA93184746502F28BF502767F38F130D
:10C9E00007F10801ADF8063002F05FFF05460028A8
:10C9F00000F09D8002F088FF01A90023082228464C
:10CA000002F095FF0099CE43C6F30B060136B6003F
:10CA1000C1F30B010331B74204EB81012AD908238A
:10CA20003246BF1B284602F082FFFFB24F4906F193
:10CA300008033A46284602F07AFF009B08F10308F3
:10CA400003EB9803009344F21803E358002B49D1F9
:10CA500044F21003E65858E062689A4204D8A26093
:10CA6000284604B0BDE8F081C3F30B00033004EBAB
:10CA700080008FE708233A46DCE7012B57D1BDF849
:10CA800004303948C3F38311062928BF062161F316
:10CA9000891302318900ADF8043002F006FF054623
:10CAA000002844D002F030FF0023082201A92846C4
:10CAB00002F03DFF0026BDF80420C2F38312B3004C
:10CAC000964203F10803BED200994A1CC1F30B0140
:10CAD0000331009204EB81010422284602F027FF73
:10CAE0000136E8E7284602F013FFFFF733FF80F036
:10CAF0000100C5B2B4E7F3685B7923B13368294616
:10CB00001B6830469847F3681E68002EF3D128460C
:10CB100002F0FEFE304602F035FB44F21803E35803
:10CB20000BB9009BA360002002F02EFBDDE744F26E
:10CB30001003E45854B90E4B0E480F49C01AC008F0
:10CB4000000440F0020000F06FF8CEE723682046B2
:10CB50009B689847E3681C68ECE7002580E700BF06
:10CB60003C1B0020545B0020FC9C0F00481B002055
:10CB7000609C0F00709C0F00E0740F002DE9F347DC
:10CB800080460F46924601A9012218469946FFF7B2
:10CB900007FE234D80B3019C0026A11C4E4506EBE9
:10CBA000010234D100211F4802F00CFB80F3100079
:10CBB000631CC3F30B0305EB8303000440EA184036
:10CBC000D860C4F30B03033315F8232068F3C502C0
:10CBD00005F8232035F8232066F3891225F8232051
:10CBE00055F8232067F39F2245F8232002F0F8022E
:10CBF00042F0010205F823202B781BB1FFF7B4FEA9
:10CC00000028FBD1FFF7A4FE02B0BDE8F087C2F315
:10CC10000B0205EB82025AF82630D3600136BDE7DD
:10CC20003C1B0020585B002000231A46FFF7A6BFDC
:10CC300007B50123019201AAFFF7A0FF03B05DF839
:10CC400004FB07B5CDE9002302236A46FFF796FFF0
:10CC500003B05DF804FB1FB5CDE90123069B0393E8
:10CC600001AA0323FFF78AFF05B05DF804FB1FB597
:10CC7000CDE90023069B0293079B03936A46042396
:10CC8000FFF77CFF05B05DF804FB7FB5CDE901231C
:10CC9000089B0393099B04930A9B059301AA052310
:10CCA000FFF76CFF07B05DF804FB00002DE9F743C8
:10CCB0000646D01C8846154601A900228008FFF7C9
:10CCC0006FFD284FB8B3019CA01C0190C0F30B006E
:10CCD000C0F580594FEA890903304D4507EB8000C4
:10CCE00030D82A46414609F077FA00211E4802F062
:10CCF00069FA80F31000631CC3F30B0307EB830393
:10CD0000320C42EA0042DA60C4F30B03033307EB50
:10CD1000830217F8231066F3C50107F82310518822
:10CD200065F38F11518037F8232002F0380242F06A
:10CD3000020227F823203B787BB9FFF709FE03B0F6
:10CD4000BDE8F0834A46414609F046FAA5EB0902E0
:10CD500008EB090107F10C00C5E7FFF705FE002805
:10CD6000FBD1EAE73C1B0020585B002030B544F2C1
:10CD70001003124AD4580023214651B9C4682371C4
:10CD800044F21004155955B91051C2681160184683
:10CD900030BDC9680D799D4209D00968EDE7ED689D
:10CDA000C1682D680D601259D2681060EFE7013339
:10CDB0000A2BE1D14FF0FF33E9E700BF3C1B002015
:10CDC00038B5094A44F21003D458012313701D46A4
:10CDD00004B938BDE3685D71236820465B689847F5
:10CDE000E3681C68F4E700BF3C1B002010B5037A21
:10CDF000052B0C460FD0437A23B1084A0849204638
:10CE000002F091FA0749204602F08DFA2046BDE86B
:10CE1000104002F07DBA002AF8D0F3E72B750F001E
:10CE2000E3920F004D750F0073B5C38804460D469D
:10CE300033B1144A00921449144A284602F073FA96
:10CE4000217A05291CD0637A4BB1A088FFF76AFDCF
:10CE50000F4B104953F82020284602F064FA227A3A
:10CE60000D4BA08853F822600021FFF73FFD0B49CE
:10CE700003463246284602B0BDE8704002F053BA7D
:10CE800002B070BD2B750F0038750F0030750F00A4
:10CE9000F8740F00E3920F005C750F0050750F00DF
:10CEA0002DE9F04385B01F460C9D002306460C4635
:10CEB000904695F80C902B7329463846FFF7B4FF3F
:10CEC000B8F1060F09D8DFE808F00412181F28335C
:10CED00040003146284602F026FA0022294638460C
:10CEE000FFF784FF85F80C9005B0BDE8F083226859
:10CEF0003146284602F017FAEFE7D4E9002331461D
:10CF0000284602F010FAE8E7A36800933146D4E916
:10CF10000023284602F007FADFE7E3680193A368DD
:10CF200000933146D4E90023284602F0FCF9D4E707
:10CF300023690293E3680193A36800933146D4E91F
:10CF40000023284602F0EFF9C7E7636903932369DA
:10CF50000293E3680193A36800933146D4E9002368
:10CF6000284602F0E0F9B8E708292DE9F84F804695
:10CF70000E4617461C463BD8002593F80C901D73AF
:10CF800019461046FFF750FFDFF88CA0DFF88CB091
:10CF9000AE422FD918F805205946204602F0C3F9B1
:10CFA0000135082DF4D11949194DDFF874B0204628
:10CFB00002F0B9F94FF0000A564522D918F80A20B4
:10CFC0007E2A1CD812F80B1011F0970F08BF2E22E2
:10CFD0001049204602F0A7F90AF1010ABAF1080F38
:10CFE000EAD1012221463846FFF700FF84F80C9071
:10CFF000BDE8F88F5146204602F095F9D0E72E2281
:10D00000E6E72946204602F08EF9E5E726750F008F
:10D0100024750F0028750F0022750F001C750F0076
:10D02000099B0F00074B1B5C1F2B86BF03F01F03E0
:10D0300005494FF0A041012202FA03F3C1F80C3573
:10D04000704700BFC1750F0000030050074B1B5C09
:10D050001F2B86BF03F01F0305494FF0A04101229B
:10D0600002FA03F3C1F80835704700BFC1750F001D
:10D070000003005008B50020FFF7E8FF0120FFF78C
:10D08000E5FF0220FFF7E2FF0320BDE80840FFF7BD
:10D09000DDBFC20710B504460CD54FF0A0430322F4
:10D0A000C3F83427C3F83827C3F83C27C3F8402710
:10D0B000FFF7E0FFA3070AD54FF0A0430C22C3F807
:10D0C0002C27C3F83027C3F86027C3F8642710BDA6
:10D0D000054B1868043B1B68082B06BFB0FA80F0AC
:10D0E00040090020704700BF34010010024AD2F806
:10D0F0000034002BFBD0704700E0014010B5684BB6
:10D100001B68082B50D14FF080430022C3F80C213C
:10D11000C3F81021C3F838254FF0805203F540437F
:10D12000D2F80414C3F82015D2F80814C3F8241553
:10D13000D2F80C14C3F82815D2F81014C3F82C1523
:10D14000D2F81414C3F83015D2F81814C3F83415F3
:10D15000D2F81C14C3F84015D2F82014C3F84415B3
:10D16000D2F82414C3F84815D2F82814C3F84C1583
:10D17000D2F82C14C3F85015D2F83014C3F8541553
:10D18000D2F83414C3F86015D2F83814C3F8641513
:10D19000D2F83C14C3F86815D2F84014C3F86C15E3
:10D1A000D2F84424C3F87025FFF792FF10B13D4B2D
:10D1B0003D4A1A60FFF78CFF18B13C4BFB22C3F8C5
:10D1C0001825FFF785FF48B139493A4B0A681B68B3
:10D1D00022F00F0203F00F0313430B60FFF778FFF9
:10D1E00018B1354B4FF400721A602D4B1B68082B99
:10D1F00009D14FF08043D3F80024D20744BF6FF029
:10D200000102C3F800242D4AD2F8883043F4700399
:10D21000C2F88830BFF34F8FBFF36F8F204B1B686E
:10D22000082B0BD1264B1B68032B81BF4FF010231B
:10D23000D3F808224FF08043C3F858254FF010234D
:10D24000D3F80022002A03DBD3F80432002B22DAC1
:10D250001C490123C1F80435FFF748FF4FF01020A7
:10D260001224C0F80042FFF741FFC0F80442FFF764
:10D270003DFF0023C1F80435FFF738FFBFF34F8FA0
:10D280000E49114BCA6802F4E0621343CB60BFF34E
:10D290004F8F00BFFDE70D4B0D4A1A6010BD00BF58
:10D2A000300100108C5600404881030000F000401F
:10D2B000E40E0040580200104096024000ED00E0ED
:10D2C0003401001000E001400400FA0514000020C1
:10D2D0000090D00338B52022044608300D4608F0EF
:10D2E0007BFF2022A91804F1280008F075FF002018
:10D2F00038BD00002DE9F743184D9946184B0360DF
:10D3000004460F4628460121904601F05BFF064681
:10D31000BFF35F8FF0B900F0DFF843460A9ACDF80B
:10D32000009007F10801204607F060FD044600F078
:10D33000E1F8BFF35F8F2E6044B10A4948F24252D0
:10D3400048F216538C420CBF14461C46204603B0CC
:10D35000BDE8F08348F20454F8E700BFE48E0020F3
:10D36000DD55AABB8408F0000D4B984212D00AD8B4
:10D37000A8B10C4948F2015248F2165388420CBF3A
:10D38000104618467047084B984206D0074948F2A5
:10D390000352F1E748F20350704748F202507047D9
:10D3A0000102F0000002F0000202F0000F02F000A3
:10D3B00008B5083007F084FDBDE80840FFF7D4BF8A
:10D3C00013681F2B2DE9F0410746884614461DD9E6
:10D3D000114D0121284601F0F5FE0646BFF35F8F8F
:10D3E000B8B900F079F8414607F1080007F0D4FD1C
:10D3F000074600F07FF8BFF35F8F38462E60FFF7D7
:10D40000B3FF08B920232360BDE8F08148F214502F
:10D41000FAE748F20450F7E7E48E00202DE9F041E6
:10D4200007460E4619480121144601F0CBFEBFF312
:10D430005F8F38BB00F050F8DFF854800837B4F540
:10D44000805F254628BF4FF4805531462A46404626
:10D4500008F0C2FE2A464146384607F04BFD641BE1
:10D460002E4468B9002CEAD100F044F8BFF35F8F76
:10D47000064B00221A602046BDE8F041FFF774BF5A
:10D480000446F1E748F20450BDE8F081E48E002044
:10D49000F45B0020024B0020C3F80005704700BF7A
:10D4A00000A0025038B50A4B00251D60BFF35F8F06
:10D4B000084C0123C4F8003507F09EFDC4F8005560
:10D4C00020B1052848F2035018BF032038BD00BF23
:10D4D000E48E002000A00250044B0122C3F8002576
:10D4E000034B4FF480625A60704700BF00A00250A7
:10D4F00000E100E0064B0022C3F80025054B4FF485
:10D500008062C3F88420BFF34F8FBFF36F8F7047E3
:10D5100000A0025000E100E04B1C30B5DB000446E7
:10D5200012F003009BB20DD1074D2A601A44074B3D
:10D530001A60074B1870074B1870074B1C80074B7D
:10D54000198030BD0720FCE7FC6B0020F86B002041
:10D55000F46B0020046C0020006C0020026C0020A2
:10D560002DE9F047284D2B888B4206460C4617467E
:10D5700045D3002001F006FE244B254A25481978A2
:10D5800013780088DBB2834238BF0133C9B234BF9D
:10D59000DBB2002399422CD092F800801378DBB2E2
:10D5A000984286BF0133DBB200231370002001F0E4
:10D5B000EBFD4FF6FF73984523D0DFF860A0DAF853
:10D5C00000304FEAC80903EB090243F838709EB1F6
:10D5D00094B1114B28881B68224608FB0030314665
:10D5E00008F0FAFDDAF800304B4400209C80BDE8DA
:10D5F000F0874FF6FF78D9E700209080F7E7092001
:10D60000F5E70420F3E700BF006C0020046C002065
:10D61000F46B0020026C0020F86B0020FC6B0020F3
:10D62000F8B5124C124D264622782B789A4200D13A
:10D63000F8BD23780F48104A078812680F48DBB2FC
:10D6400019B202EBC10C006852F83120BCF804108A
:10D6500003FB070090470A4A23781288DBB29A42FC
:10D6600086BF0133DBB200233370DDE7046C00209A
:10D67000F46B0020006C0020FC6B0020F86B002095
:10D68000026C002043681B6818470000024B5B686F
:10D6900003B11847704700BF086C0020020600F075
:10D6A0000F034CBF02480348DB001844704700BF1B
:10D6B000146C00205C6C002008B5FFF7EFFF0160E0
:10D6C00009B14B681968416008BD0000024B014672
:10D6D0005A681868104700BF5C6C00200378052B5F
:10D6E0000CD1084AD2F88434D2F8802412F0FF0F0B
:10D6F00004D1054ADBB2052B08BF1046034B1B685B
:10D70000184700BF0070024004760F00086C00202C
:10D71000012806D010B1022805D070470348FFF752
:10D72000DDBF0348FBE70348F9E700BFF8750F00CA
:10D73000FC750F0000760F00FFF7D0BF0148FFF720
:10D74000CDBF00BF08760F0038B5831EDBB2062BB5
:10D7500098BF1A4A1A4C98BFD25C2378A3F10203EF
:10D76000DBB288BF0022062B9ABF1449CB5C002392
:10D770009342054603D0B2B1124802F0D3F9022D0C
:10D7800014D0A5F10800424242412378022B0FD069
:10D79000A3F108014B424B41934202D052B103F036
:10D7A0007DF8257038BD02F0E7F9E8E70122ECE7E3
:10D7B0000123F1E703F068F8F3E700BFEC750F0011
:10D7C000AD6C0020180000202DE9F04F87B0002636
:10D7D000054689469246984602966B6800225C6828
:10D7E0002946012302A8A04740B98DF806000490FD
:10D7F00004460746BE4203D805202AE00136ECE77E
:10D800006B680DF10602D3F804B02946012304A881
:10D81000D8476B680DF10702D3F804B029460123FD
:10D8200004A8D8479DF807304B459DF8063015D120
:10D83000544511D1109A136088F8003088F801908F
:10D840006A68023B5468294608F1020204A8A0470E
:10D85000002007B0BDE8F08F0134E4B26A68023BF3
:10D86000D2F804B02946002204A8D8479DF8063013
:10D870001F44BFE72DE9F74305462E4803F024F87F
:10D880000446002836D12C4B18702C4B18602C4BBA
:10D890000146186048222B4808F0A0FD4822214686
:10D8A000294808F09BFD294B45BB294A1D72C3E955
:10D8B0000025002002F074F918B1852801D003F08A
:10D8C0003DFD244E96F80890002506F10908ECB2BB
:10D8D000A14504D904EB440414EB080427D10B231D
:10D8E00001A91C488DF80430FFF7CCFE044608B1AE
:10D8F00002F0C8FE204603B0BDE8F08395E80700BB
:10D9000083E807000028D4D1114A1A60D1E73146D4
:10D91000E05CFFF7D1FE6378FAB2934205D9A378B1
:10D920001344DC4207F10107F1D10135CFE70027AD
:10D93000F1E700BF39D70E00AD6C0020A46C0020C9
:10D94000A86C0020146C00205C6C0020086C002087
:10D9500085DC0E0034760F0010B502F053FF10B9CD
:10D960000823184610BD02F055FF04460028F7D1E1
:10D97000044802F030F903460028F2D003F0DEFC40
:10D980002346EEE7F4750F0002F086BE03F09EBA60
:10D990004FF08043D3F83824920702D50348FFF7AD
:10D9A0009DBED3F83824D107F4D4704709760F0010
:10D9B00007B5822301A88DF80430FFF78FFE03B06E
:10D9C0005DF804FB2DE9F74300F1090490F8089095
:10D9D000064600252746EBB24B4532D224B394F8D5
:10D9E0000180002106E0E05CFFF758FE036801318A
:10D9F000002B37D1CBB2984503D9A3780B44DC4236
:10DA0000F1D101350334E6E73146E85CFFF754FE17
:10DA10006B785FFA88F2934205D9AB781344DD4204
:10DA200008F10108F0D10134337AE5B2AB4203D9F1
:10DA300005EB45057D1901D10B4B05E04FF00008C2
:10DA4000E6E70024F0E713681A68002AFBD11E609D
:10DA500001A90B2330468DF80430FFF713FE03B005
:10DA6000BDE8F0831120FAE7A46C0020024B18787F
:10DA7000003018BF01207047AC6C0020030710B5C0
:10DA8000044604D403F040F8204603F0DFFA2046B1
:10DA9000BDE8104003F08CBA03F058BA014B186887
:10DAA000704700BFA46C0020F0B50A4B1B687BB127
:10DAB0001D7A00229E1DD4B2A54201D81B68F5E74D
:10DAC000013202EB4207F75D8742F4D101B10C70DD
:10DAD0001846F0BDA46C00201146FFF7D3BD08B571
:10DAE00000F00F03082B07D8FFF7D8FD006818B126
:10DAF000BDE80840FFF7C6BD102008BD38B5054B8E
:10DB000005461C6804B938BD29462046FFF7BAFD12
:10DB10002368F6E7A46C002038B5074B05461C685F
:10DB20000CB9062038BD29462046FFF7ABFD062874
:10DB3000F8D12368F3E700BFA46C002038B5044691
:10DB40000D4602F004FF48B1054B1B78022B05D1AE
:10DB500029462046BDE8384002F0FCBE082038BD0A
:10DB6000AD6C002038B504460D4602F0F0FE48B119
:10DB7000054B1B78022B05D129462046BDE83840CD
:10DB800002F05CBF082038BDAD6C0020F8B54368DA
:10DB90009B6805460C46164613B92EB1072002E0D5
:10DBA00098470628F9D0F8BD2B7AA34213D9093536
:10DBB00004EB44042C446778F3B29F4201D8002060
:10DBC000F1E762789A4208D9A219A378D05CFFF7EE
:10DBD00055FF0136F0E77378FFDE00231B78FBE783
:10DBE00070B54368DB6805460C4603B198472B7A4D
:10DBF000A34213D9093504EB44042C44002566786C
:10DC0000EBB29E4200D870BD62789A4209D962197F
:10DC1000A378D05C03F09AF90135F1E700235B7833
:10DC2000FFDE00231B78FBE743681B6903B118473D
:10DC30001846704770B5084B1C6804B970BD267A49
:10DC40000025E9B28E4201D82368F5E7002220467C
:10DC5000FFF79CFF0135F4E7A46C002070B5084B7A
:10DC60001C6804B970BD267A0025E9B28E4201D83D
:10DC70002368F5E72046FFF7B3FF0135F5E700BF5E
:10DC8000A46C002038B50478092C054620D023D890
:10DC9000032C00F0BC8012D8012C00F0A68040F2CA
:10DCA0008D800320FFF750FD0220FFF7EFFC284690
:10DCB000FFF724FF2846BDE83840FFF707BD052CD5
:10DCC000F8D0C0F0B380062C00F0BF80082C13D130
:10DCD0002046FFF7DBFC95E0812C0ED005D80F2CF9
:10DCE000F6D0802C44D00A2CF1E7832C4CD021D3E1
:10DCF000842C53D0852CDDD038BD5E48FFF7E6FC80
:10DD00005C48FFF7FBFE0D20FFF7C0FCFFF7A6FF06
:10DD100000F04DFF584B1B6853B9584B187A00F070
:10DD2000010002F04BFD0120BDE83840FFF70CBDBB
:10DD30000120F4E7FFF792FF03F0A6F80020FFF7B9
:10DD400003FD4F48FFF7DAFE4D48FFF7BFFC0E20FA
:10DD5000FFF79CFC4B4B1B78023BDBB2062BCBD86E
:10DD6000494AD35C002BC7D0BDE8384001F004BF5E
:10DD7000444B1B78062B05D0072B01D0052BBBD1BC
:10DD80000220D1E70820CFE73E4B1B78032BB3D10D
:10DD900003F0B6F80028AFD00420C5E7394B1B7854
:10DDA000032B05D103F0ACF810B10420FFF7CCFC35
:10DDB00002F03AFD00289FD00620B5E7314B1B78D2
:10DDC000032B01D0082B02D13048FFF75BFF002066
:10DDD000FFF75CFC284B1C68002C8DD020462946A0
:10DDE000FFF750FC23685C68F6E7FFF737FF00F0A9
:10DDF000D5FE0220FFF7A8FC2046FFF747FC284687
:10DE0000FFF764FC2846BDE83840FFF777BE1D4B9E
:10DE10001B78082B06D10220FFF796FC02F048FD84
:10DE20000320EAE70520FFF78FFCF9E70320FFF75F
:10DE30002DFC1748FFF74AFC1548FFF75FFE114B12
:10DE40001B78062B9CD107206EE78078FFF726FC15
:10DE5000294643680068984700283FF44DAFA878EA
:10DE600002073FF449AF03073FF546AFBDE838402E
:10DE700002F024BE0A760F00A86C0020086C002077
:10DE80000B760F00AD6C0020EC750F000C760F00C8
:10DE90000D760F00C36903B118477047036800226D
:10DEA0001A845A62DA62C3E91E22C3E9202203F10E
:10DEB00034025A6770470000F0B5C24D0C7A2C70DE
:10DEC000046840F24536B44200F0D58200F2E180A9
:10DED00040F22736B44200F04982B4F54A7F70D24E
:10DEE00040F21736B44200F00482B4F5467F26D2E1
:10DEF000B4F5457F00F0E2810BD8002C00F0CC8116
:10DF000040F21336B44200F0CF810023036018467C
:10DF1000C9E140F21536B44200F0DE8140F2163617
:10DF2000B442F2D100240AB1067916550134022612
:10DF30009C420671C0F0DE8140F21733B1E140F23D
:10DF40001A36B44200F0EE8114D8B4F5467F00F0E2
:10DF5000DC8140F21936B442D7D100240AB10679E7
:10DF60001655013400269C420671C0F0DC8140F257
:10DF70001A3396E140F22136B44200F0EA8140F2D1
:10DF80002236B442C1D100240AB1067916558E4E0C
:10DF90000F7A3678DFF834C2B74204F1010440F258
:10DFA0005A8301F1090706EB460607EB060E9C4271
:10DFB000BE5DCCF800E00671C0F0D98140F2273395
:10DFC0006FE1B4F54D7F00F0108239D840F22D3664
:10DFD000B44200F0E6811CD8B4F54A7F00F0D2814B
:10DFE00040F22936B44290D100240AB10679165580
:10DFF000764E0F7D36683678B74204F1010440F062
:10E00000E98102269C420671C0F0CC8140F22D339A
:10E0100047E140F22E36B44200F0CF8140F22F3675
:10E02000B4427FF472AF00240AB106791655013468
:10E030000026A342067100F2F28140F23D3330E146
:10E0400040F23D36B44200F0E98107D840F235365F
:10E05000B44200F0D68140F23636E1E740F2433672
:10E06000B44200F0F081B4F5517F80F0F88140F2C5
:10E070004236B4427FF449AF00240AB106791655FE
:10E08000013424269C420671C0F0DE8140F2433305
:10E0900007E140F25736B44200F05782B4F5567F9C
:10E0A0006BD240F24D36B44200F01D8232D840F2BD
:10E0B0004A36B44200F0FE8116D840F24636B442E9
:10E0C00000F0E58140F24936B4427FF41EAF0024EF
:10E0D0000AB106791655013424269C420671C0F017
:10E0E000EA8140F24A33DCE040F24B36B44200F0C1
:10E0F000ED81B4F5537F7FF408AF00240AB10679AF
:10E10000165501348E7D06719C42C0F0ED8140F2BF
:10E110004D33C6E040F25236B44200F0FD8115D8CE
:10E12000B4F5547F00F0EB8140F25136B4427FF4F5
:10E13000ECAE00240AB106791655013402269C4241
:10E140000671C0F0EA8140F25233AAE040F2533641
:10E15000B44200F0ED8140F25636B4427FF4D5AEC1
:10E1600000240AB106791655013424269C42067112
:10E17000C0F0EC8140F2573393E040F27336B44282
:10E1800000F02882B4F55D7F47D240F25A36B4429F
:10E1900000F0F4811CD8B4F5567F00F0E28140F223
:10E1A0005936B4427FF4B1AE00240AB1067916554F
:10E1B00001348E7D06719C42C0F0E18140F25A33F9
:10E1C0006FE000BFB06C0020AF6C0020B46C00208A
:10E1D00040F26E36B44200F0F08140F26F36B44245
:10E1E0007FF493AE00240AB106791655AE4EAF4FB8
:10E1F00036683F7896F801C0BC4504F1010440F24E
:10E200002F8296F802C03E449C4216F80C600671BC
:10E21000C0F0E18140F2733343E0B4F5617F00F078
:10E22000F98114D8B4F55E7F04D040F27D36B44253
:10E230007FF46BAE00240AB10679165501344026EE
:10E24000A342067100F2E7814FF4617329E040F2C6
:10E250008A36B44200F0F58140F28F36B44200F0C5
:10E26000F08140F28536B4427FF44FAE00240AB10B
:10E27000067916558C4E0F7D36683678B74204F114
:10E28000010440F0D4810E6A9C4236780671C0F0D9
:10E29000D98140F28A3304E00824047123B940F2A2
:10E2A000133303600120F0BD0AB1047914700B240C
:10E2B000012B04710ED84FF44573F2E700240AB124
:10E2C0000679165501340E7D06719C4205D340F245
:10E2D0001533E6E70124F2E700240AB10679165562
:10E2E000013402269C420671FFF41DAE40F2163343
:10E2F000D7E700240AB106791655013402269C425C
:10E30000067103D34FF44673CBE700240AB10679B4
:10E31000165501344E7E06719C42FFF41FAE40F24A
:10E320001933BEE700240AB106791655604E00275E
:10E33000013437705E4E37782E78B74202D340F200
:10E340009A33AEE70926A342067103D840F221337F
:10E35000A7E700240AB106791655013404269C4229
:10E360000671FFF411AE40F222339AE700240AB19D
:10E3700006791655013400269C42067103D34FF4EA
:10E380004A738EE700240AB106791655464E366860
:10E390000134767806719C42FFF427AE40F22933AF
:10E3A0007FE700240AB106791655013402269C4203
:10E3B000067103D340F22E3373E700240AB10679C5
:10E3C000165501344E7E06719C42FFF42DAE40F28C
:10E3D0002F3366E78F7DB7427FF42AAE0A269C4230
:10E3E000067103D34FF44D735BE700240AB106793D
:10E3F0001655013400269C42067103D340F2353392
:10E400004FE700240AB106791655013400269C42D4
:10E410000671FFF409AE40F2363342E700240AB138
:10E4200006791655204E0F7D36683678B74204F1CE
:10E43000010440F0A88005269C420671FFF41DAE41
:10E4400040F242332DE700240AB106791655013413
:10E4500000269C42067103D34FF4517321E7002438
:10E460000AB106791655013410269C42067103D371
:10E4700040F2453315E700240AB1067916550134F8
:10E4800001269C42067103D340F2463309E700247B
:10E490000AB106791655013405269C420671FFF42F
:10E4A00017AE40F24933FCE6B46C0020B16C00209A
:10E4B000AF6C002000240AB10679165501340126FC
:10E4C0009C42067103D340F24B33EAE600240AB1C2
:10E4D00006791655013403269C420671FFF40EAEF0
:10E4E0004FF45373DDE600240AB106791655013462
:10E4F00004269C42067103D34FF45473D1E60024E2
:10E500000AB106791655013424269C420671FFF49F
:10E5100011AE40F25133C4E600240AB10679165513
:10E52000013402269C42067103D340F25333B8E60D
:10E5300000240AB106791655013405269C4206715D
:10E54000FFF40FAE40F25633ABE600240AB1067971
:10E550001655013406269C42067103D34FF45673B8
:10E560009FE600240AB10679165501340E7D067126
:10E570009C42FFF41AAE40F2593392E600240AB1ED
:10E58000067916550134374E36687778364E37702F
:10E59000364E00273770354E3778334E3678B742CF
:10E5A00004D3334F3E7801363E70C3E60726A342BC
:10E5B000067103D840F26E3373E600240AB106797F
:10E5C0001655013405269C420671FFF40CAE40F24C
:10E5D0006F3366E600240AB106791655214E0F7D89
:10E5E00036683678B74204F1010407D103269C420D
:10E5F0000671FFF420AE4FF45E7352E68F7DB74292
:10E600007FF41DAE02269C420671FFF414AE40F268
:10E610007D3346E600240AB10679165501340026FA
:10E620009C420671FFF423AE40F2853339E68F7DBC
:10E63000B7420BD100269C42067103D340F28F33C0
:10E640002FE600240AB1067916550134074F3E78AB
:10E6500001363E709FE70023CCF800301B78FFDEC8
:10E660000023FBE7B46C0020AE6C0020B16C0020EE
:10E67000AF6C002010B5044658B90868037B202B06
:10E6800009D100F10E010722183007F0A5FD204640
:10E6900010BD0320FCE70620FAE74360CA699A42EE
:10E6A0000DD38A690260C8691A448A610A6FC01A68
:10E6B0001A44C86100300A6718BF0120704701F191
:10E6C000280202608B6700207047037A012B08D96B
:10E6D000427B012A00F10C0306D9827B134458784F
:10E6E000704700235B78FFDE00231B78FBE7000008
:10E6F0002DE9F0470B7888B006460D460E2B1AD848
:10E70000DFE813F05D003A015D005D0019000F00C5
:10E71000A60019001900370119005D005D005D00B9
:10E720005D004A78D1094FEA521330D013F0030349
:10E7300003D0012B21D006241BE002F01F02012A86
:10E74000F9D1AC78062CF6D105A8039300F09AFC19
:10E7500003AB009307460346EA7829793046FFF772
:10E7600033F8052805D0039A3946681C00F03AFAB8
:10E770000446204608B0BDE8F087AB78212BDAD1FB
:10E78000B5F80720072AD6D101681831EDE7012B2B
:10E79000D1D1AB780768202B13D0222BCBD1B5F881
:10E7A0000730002BC7D197F82020B5F803303B8401
:10E7B00002F0010203F001039A429CB223D100242B
:10E7C000D7E7B5F80720072AB5D13B73B5F807306E
:10E7D0000024DBB27B7320460E37CDE90573079426
:10E7E00000F0D0FC204605A9FFF7A8F9044630B98F
:10E7F000664B03A9CDE9033600F0E2F90446002098
:10E8000000F0C2FCB5E7002C14BF02210321FFF782
:10E8100041FB002CD3D1337A012B40F2B180737BC2
:10E8200006F10C02002B00F0AD80B37BD05C02F04F
:10E8300083FA3046FFF749FF02F07EFA07F134030E
:10E840007C62FC62C7E91E44C7E920447B6790E70D
:10E85000037A002B00F09880837A00F10901002BE5
:10E8600000F09080C27AAB788A5C9A42A7D01B06EF
:10E87000EC780AD524B1032C0CBF0024032478E7DC
:10E8800001213046FFF706FB73E7012C97D067B2F2
:10E89000002FF0D10568FFF718FF3D4B059305F1F8
:10E8A0000C030693AC6A8146BCB9EB6FAC67C5E953
:10E8B0001F43EB6A73B105F12C0292E8030005F1E6
:10E8C000240383E80300EC6205A94846FFF74AF9F0
:10E8D000044600E06C620021D3E7D5F884A0686AA2
:10E8E000544528BF544605F134082246414607F0F6
:10E8F00073FCEB6F2344C5E91F73AAEB0403AB67FA
:10E90000EB6A44446C672BB305F1240405F12C0831
:10E9100098E8030084E80300AB6FEF62686A1BB9F4
:10E920006B6A002BD0D116E0AA6A696F9A4214D89C
:10E9300007F052FCAB6AAA6FC5F88030D21AAA67FA
:10E940006A6F1A446A6700213046FFF7A3FAEB6A40
:10E95000002BDDD16B620024BDE71A4607F03CFCBA
:10E96000AA6FAB6AEA679B1AAB626B6A13446B626D
:10E97000D6E70321FFF78EFA3046FFF78FFA1EE73E
:10E980006378FFDE1B78FCE75B78FAE775E60E003C
:10E990009BE60E001FB503681B8CDC0714D5037AB9
:10E9A000012B13D9437B00F10C0493B1837BE05C12
:10E9B0009306CDE901120CBF0123002301A90393A3
:10E9C000FFF7BCF804B010BD0820FBE700235B781C
:10E9D000FFDE1B78FCE700002DE9F3410468238C7F
:10E9E000DB0780460F46164646D5002000F0CAFBDE
:10E9F000656A002D38D1A16FB14213D33246616FE1
:10EA0000384607F0E9FBA36FC4F880609B1BA3673F
:10EA1000636F33446367002000F0B6FB284602B002
:10EA2000BDE8F081C4E909764046FFF74EFE134B7E
:10EA3000009304F10C030646019369B10A46384677
:10EA4000616F07F0C9FBA36FA26AD21AA262626A61
:10EA5000C4E91E531A44626269463046FFF782F8E1
:10EA6000051E08BF9225D6E7E36A1BB9C4E90B76F9
:10EA70009225D0E71125CEE70825CFE79BE60E00CB
:10EA8000002070472DE9F04F85B04B680092824618
:10EA90000C465BB90B681B681B683BB98D682DB9C8
:10EAA000C0E90055284605B0BDE8F08F02F002F835
:10EAB000009BE7689F4228BF1F464FF0000904F102
:10EAC000100383464E46012501934FB3A368616846
:10EAD000BB42984628BFB84629B342460BEB060016
:10EAE00007F07AFB00236360A268E368A2EB0802E8
:10EAF000A3EB0803A260E360A7EB0807464402BB50
:10EB0000B9F1000F03D02268126812682260D3B1F5
:10EB10002368D3B963601EB1009BB34288BF002550
:10EB2000CAE900B6BEE7002BDED0216801984B6829
:10EB30000BEB0602D3F804904346C8474FF0010997
:10EB4000D2E7002BC1D10025BFE700230293216843
:10EB50004B680022D3F8048002A80123C04708B9FB
:10EB60002061B2E7A3680133A360F0E7084B1A788D
:10EB700082420CD0052818BF064A187018BF1378B7
:10EB800005481CBF23F002031370FFF77BB87047E2
:10EB9000C46C0020E06C002044760F0008B5002013
:10EBA000FEF76CFF8020BDE80840FEF767BF08B5A0
:10EBB0000020FEF771FF8020BDE80840FEF76CBF23
:10EBC00038B505460C4602F01BF8A84203BFD4E94D
:10EBD0000001034BC3E90001102008BF002038BD2D
:10EBE000E46C00207FB5C38893421D4628BF1546BC
:10EBF00093420E46144620D9802001F0A3FEB4FBB8
:10EC0000F0F303FB1040B0FA80F0400903900020BD
:10EC1000CDE9016500F0B6FA01A98020FEF78EFF6C
:10EC2000044620B906498020FFF7CAFF04460020A9
:10EC300000F0AAFA204604B070BD0020E6E700BF4D
:10EC400078760F002DE9F04F0C78062C87B00E4631
:10EC500000F0F88120D8022C3DD003D8012C32D00E
:10EC60000624E9E1032C32D0052CF9D10DF10D0079
:10EC7000B04D8DF80C4001F057FF00232B609DF83C
:10EC80000D3003F01F07032F00F28481DFE817F037
:10EC90002D001D01790165000D2C00F0C18107D800
:10ECA0000B2C18D00C2CDBD10020FFF75FFF12E0FB
:10ECB0000E2C00F0C581852CD2D19F4B1B78032BE5
:10ECC000CED1042000E00320FFF750FFC8E79B48A7
:10ECD00000F0CAFA08B90024AEE1994B01221A608B
:10ECE000BFF36F8FBFF34F8FF5E7C3F34116A6BB9A
:10ECF000DB099DF80E1000F0A280062916D0082925
:10ED000000F0908049BB8F4C0222204607F066FB42
:10ED1000237843F0010222708B4A1278920744BF95
:10ED200043F003032370022286490EE09DF8103061
:10ED3000022B16D0032B65D0012B0ED1BDF813305A
:10ED4000002B00F06A81814912220DF10D00FFF7BE
:10ED500049FF0446062C40F0258103A8FEF7DCFE9F
:10ED60000DE1BDF81330002B00F05781092B28BFAF
:10ED700009239846FEF792FE4FF0090904465CBB52
:10ED8000704C73494246204607F026FA2771A4F8D2
:10ED90000290FEF76BFE18B1E37943F02003E371B4
:10EDA000FEF77CFE6B4BC3E90004C3F80880BDF896
:10EDB0001320DA60002000F0E5F967498020FEF7B3
:10EDC000D1FE044620B965498020FFF7F9FE0446CC
:10EDD000002000F0D9F9BDE701964FF0000A636802
:10EDE0000022D3F804B02146012301A8D84730B946
:10EDF000237A1F442368D144FFB21C68BFE70AF19D
:10EE0000010AECE7BDF81330002B00F00681BDF8D5
:10EE100011109DF80F0000F085F9014600289CD0E4
:10EE2000027892E7444A1278052A03D1454A1370C2
:10EE3000012279E7042A90D1424B1E70F8E703299A
:10EE40000FD009292BD0012987D1BDF80F30012B14
:10EE500083D1FEF70BFE60B13B4A137823F0020327
:10EE60000FE0BDF80F30012B7FF477AFFEF7FEFD0A
:10EE700018B90F2401F0BAFEDEE0334A137843F0EC
:10EE8000020313702B68002B00F0C78001F0B8FE5E
:10EE9000044600287FF41FAF01F06CFECCE0264B47
:10EEA0001B78043B012B01D90824E3E79DF80F30C0
:10EEB0002BB9FEF7D3FE0420FFF758FEE2E7012B43
:10EEC00056D1FEF7B7FE0520F6E701A99DF811001F
:10EED000FEF7EAFD074608B91024CBE703AA9DF820
:10EEE0000410FEF7F9FD062804465BD19DF80D20BD
:10EEF00012F0600FBED1104B9DF8041018789DF8E9
:10EF00000E30D6092CD073B10A2BB3D10528CBD142
:10EF10003846FEF789FE0B49324608700DF10D00A8
:10EF2000FFF760FE2BE00528BED106490B800222C8
:10EF3000F4E700BFE46C0020C46C0020EC6C0020FF
:10EF40005C700240F06C0020E06C002064760F00E2
:10EF500045760F00C86C002090760F0078760F0081
:10EF60000B2B87D105289FD1BDF80F30FF2B01D97E
:10EF700007247FE79DF80F203846FEF707FE04467A
:10EF800010E09DF81100030706D19DF80D3013F035
:10EF9000600F0BD006246DE703A9FEF7A0FD06283D
:10EFA0000446F2D0002C3FF46DAF63E79DF80E20CD
:10EFB000314B9DF811401B78012A1CD082B1032AE5
:10EFC000E8D12607E6D4BDF80F20002AE2D12007B9
:10EFD000E0D0052B7FF468AF204601F06FFD51E7CC
:10EFE000052B02D027077FF45FAF204601F072FDAA
:10EFF000224908809BE72107CCD4BDF80F20002AC6
:10F00000C8D12207C6D0052B7FF44EAF204601F0B1
:10F010007BFD204602F01AF834E701F0DDFD5AE6E8
:10F020004FF08043D3F8384414F0010401D002209B
:10F030003BE60120FFF79AFD204607B0BDE8F08FC0
:10F04000012032E6C8780328F6D00D4D2B688BB12D
:10F0500000222A6069689847044600287FF40AAFB6
:10F060002B6823B1B378002B7FF435AE14E701F0A1
:10F07000B3FDE1E70E24FDE6C46C0020F06C002037
:10F08000E46C002008B1402303600148704700BFD2
:10F09000F06C002070B54FF0805286B0D2F8A830E6
:10F0A000D2F8A42000926FEA83436FEA93439BB2A5
:10F0B0000A4A0B4E0D2102A807F022FA02AD0024E5
:10F0C00002A807F0DDFA844201D306B070BD15F83E
:10F0D000013B06F8013B0134F2E700BF98760F00D0
:10F0E000E88E002010B50E4B53F8204023780BB962
:10F0F000A01C10BD0020FFF7C5FF013C00235A1CD7
:10F10000A15C39B9DBB201335B00DBB243F440737D
:10F110000380EEE7D3B220F813101346EFE700BFE9
:10F12000E8760F00034608B9FFF7DCBF012807D0D7
:10F13000022805D0032803D0042801D0052809D1CE
:10F14000054A02EB4303587820B1044B53F82030B2
:10F15000002BE9D10020704700770F00E8760F0000
:10F1600072B6024A1368013313607047306D002095
:10F17000034A1368013B136003B962B6704700BFCE
:10F18000306D0020FFF7ECBFFFF7F2BF30B53AB1AA
:10F190001368DB430A4D0144814204D1D84330BD9A
:10F1A0004FF0FF33F6E710F8012B5340082213F01D
:10F1B000010418BF2C46013A84EA5303F7D1EBE768
:10F1C0002083B8ED50E8002F0B4640E8003C9CF04F
:10F1D000000FF7D11046704750E8002F42EA0103B4
:10F1E00040E8003C9CF0000FF6D11046704750E814
:10F1F000003F43EA010240E8002C9CF0000FF6D1EA
:10F200001046704750E8002F02EA010340E8003C36
:10F210009CF0000FF6D11046704750E8003F03EA1B
:10F22000010240E8002C9CF0000FF6D11046704718
:10F2300050E8003F03EB010240E8002C9CF0000F77
:10F24000F6D11046704750E8003FA3EB010240E8BA
:10F25000002C9CF0000FF6D1104670470121FFF7FB
:10F26000BBBF0121FFF7C3BF0021FFF7CBBF0021C8
:10F27000FFF7D3BF10B590B1D0E9012301689B1A05
:10F28000DBB20A60013BDBB2FF2B026802D1002037
:10F29000107110BD11684C1C14600B70F2E70E2049
:10F2A000F7E738B504460020FFF76CFF2268616875
:10F2B00013688B4215D9591E116013F8015C228A1C
:10F2C000E36802FB05352268A36811685B1A1179AF
:10F2D000DBB2994200D213710020FFF755FF284698
:10F2E00038BD0025F8E738B5054600200C46FFF785
:10F2F00049FF2A681368591C1160E968641A298A51
:10F30000B4FBF1F41C700020BDE83840FFF73CBFAF
:10F3100010B5826804462AB14369016800699847BC
:10F320000023A36010BD0EB403B5039921B104AB53
:10F3300001AA019300F074F802B05DF804EB03B089
:10F3400070470A2938B504460D4602D10D21FFF752
:10F35000F8FFA3682268591CA160D554D4E9013292
:10F360009A4204D32046BDE83840FFF7D1BF38BDEC
:10F370002DE9F84F9946DDE90A431746824688464B
:10F380000A460126BA420FD24E4538BF4E4613F008
:10F39000010B01D164B900240125B9F1010F1AD97B
:10F3A00009F1FF397D43F8E7B2FBF7F20136E9E7EF
:10F3B0009B070ED5B9F1000F0CBF30252025A642C2
:10F3C000EAD2013C29465046FFF7BBFF002CF6D19C
:10F3D000E1E72025F3E7B8FBF5F39F42E2D9DFF838
:10F3E0003C90B8FBF5F3504619F8031005FB138861
:10F3F000FFF7A7FFB5FBF7F3BD4207D2BBF1000F44
:10F4000002D00CB1A64203D3BDE8F88F1D46E8E751
:10F4100020215046013CFFF794FFF2E715770F00DB
:10F420002DE9F74F054617468846002900F0308140
:10F4300018F8011B49B92B7B002B00F029812846C5
:10F4400003B0BDE8F04FFFF763BF252940F0C0804F
:10F45000002698F800302D2B424608F1010823D0F1
:10F46000302B24D02B2B25D000242A2B02F1010194
:10F4700023D13B681A1D3A601B680A461C44137866
:10F480002E2B26D101324FF00009104610F8011B37
:10F49000A1F1300CBCF1090F1DD80A2303FB09139D
:10F4A000A3F130090246F0E746F00106D1E746F045
:10F4B0000206CEE746F00406CBE711F8013CA3F1C3
:10F4C00030000928DBD80A2202FB0434303C0A460B
:10F4D000CBE74FF0000912F8011B01F0FB00682890
:10F4E0009046F8D069290ED04AD8582964D006D859
:10F4F00025296DD098F80030002B99D19BE763291E
:10F5000062D06429F6D13A68111D3960D2F800A0A2
:10F510008AEAEA72A2EBEA724FF0010B092A5BDC7D
:10F52000CB4538BFCB462CB1BAF1000F01DB7207D7
:10F5300000D5013CB30702D5B9F1000F04D0F007A4
:10F5400002D4002C4ED10024BAF1000F52DACAF1D5
:10F55000000A2D212846FFF7F4FE06F00302022AD6
:10F5600005D1B9F1000F02D1002C47D10024CDE91B
:10F5700000464B460A2251462846FFF7F9FEB9E7F6
:10F5800073294CD014D87029B4D13B681A1D3A6045
:10F59000302128461C68FFF7D4FE78212846FFF763
:10F5A000D0FE00220823CDE9003221461022E3E7F5
:10F5B00075292BD078299DD139680A1D3A60CDE98B
:10F5C00000464B46102228E03B681A1D3A60197825
:10F5D0002846FFF7B6FE8DE70A230BF1010BB2FBBD
:10F5E000F3F29BE7A345AFD220212846013CFFF769
:10F5F000A8FEA6E77107B0D52B21ABE7A345B6D28D
:10F6000030212846013CFFF79CFEADE73968CDE983
:10F6100000460A1D3A604B460A220968ACE73B687F
:10F620001A1D3A6016F00106D3F800A020D1BAF1F5
:10F63000000F03D0504607F023F80646B44200D925
:10F64000C4B90AF1FF3A1EE028460136FFF779FEF9
:10F650001AF806100029F7D1A642BFF44BAF002CD0
:10F660003FF448AF20212846013CFFF76AFEF3E74C
:10F670000026EDE720212846013CFFF762FEDDE78A
:10F680002846FFF75EFE1AF8011F0029F8D131E77E
:10F6900003B0BDE8F08F01600B681146184710B445
:10F6A0000468E468A4465DF8044B604710B404683D
:10F6B0002469A4465DF8044B6047000070B508B1AA
:10F6C0000368ABB90C4D0D4C0026641B1423B4FB2E
:10F6D000F3F4B44201D1002009E02B6813B90136DC
:10F6E0001435F6E7DB69284698470028F7D070BD47
:10F6F000DB69BDE870401847BC000020D000002046
:10F70000014B43600020704734770F000846704774
:10F7100000207047024B1868003018BF0120704766
:10F72000346D002008B50248FFF7A1FD002008BD98
:10F73000346D002008B510461A4606F04DFD002035
:10F7400008BD00002DE9F043814687B014480F46FC
:10F7500016469846FFF782FD0446F0B90546AE42CC
:10F7600015D10F48FFF783FDD9F808305BB10222AD
:10F770008DF800200022CDE90127CDE90326CDF840
:10F78000148068469847204607B0BDE8F08307EB31
:10F79000053000F033FA0135E1E71124F3E700BF4B
:10F7A000346D00202DE9F041804686B011480F46A7
:10F7B00016461D46FFF752FD0446C8B9AA08314651
:10F7C000384600F049FA0B48FFF751FDD8F80830E9
:10F7D00053B101228DF800200C9A0592CDE9014722
:10F7E000CDE9036568469847204606B0BDE8F0813C
:10F7F0001124F9E7346D00202DE9F047B0F80690A8
:10F800004479D2F800A09DF8208009FB04F4043C60
:10F8100006460AEB0300A0420F4688BFA4EB030A8A
:10F82000191DC2F800A0B1FBF9F509FB15114DB97E
:10F83000A9EB0104544528BF5446BAF1000F04D186
:10F84000BDE8F0873668013DF1E704317B19701897
:10F850002246B8F1000F0ED001461846AAEB040A62
:10F8600006F0BAFCD145254436684C464FF00001FD
:10F8700028BF5446E1E71946F0E7FFF7FBBCF8B5AF
:10F8800046790146721E0546002393422D6803D334
:10F890000024A64202D8F8BD0133F6E70F682846D7
:10F8A000FFF721FD01343946F3E72DE9F843CD1C7C
:10F8B000068A0746FFF7F5FC043E35440446B5FBCF
:10F8C000F6F5F0B14FF48073EDB28380C680013D50
:10F8D000076081464FF00008A84512D23846FFF76E
:10F8E000E0FC064648B163790133637108F1010811
:10F8F000C9F8000007608146EEE72046FFF7BFFF2A
:10F9000034462046BDE8F88301210430FFF790BC5F
:10F9100010B5012104460430FFF795FC10F0FF0FED
:10F9200004D12046BDE81040FFF7A9BF10BD1FB5A8
:10F9300003920022009203AAFFF75EFF05B05DF874
:10F9400004FB1FB503920122009203AAFFF754FFA4
:10F9500005B05DF804FB8268002393608268136140
:10F96000826853618268D3608268536082681360E2
:10F970007047000010B50D49A1F58C72914201D875
:10F9800000200FE08B1ADB1003EBD3735B1002EB4C
:10F99000C30452F83330834205D802D204F108027E
:10F9A000ECE7606810BD2146E8E700BF8C780F00E7
:10F9B00008B5FFF7DFFF024B002808BF184608BD57
:10F9C00060770F00F0B578B371B36BB300241C609F
:10F9D0000A44DB274FF0DC0C4FF0DD0E1C688A4236
:10F9E00004F1010500EB040604D11D60C02333704F
:10F9F0000020F0BD0E78C02E05D0DB2E0CD01D608F
:10FA00000D78055506E01D6007551C68651C1D60D6
:10FA100000F804C00131E1E71D6006551C68651C53
:10FA20001D6000F804E0F5E70E20E2E710B590B3A2
:10FA3000D0E902239A4230D00478012C11D063B26D
:10FA40001BB1022C21D0112012E0C02927D0DB29C4
:10FA500002D101230370F6E74368541C8460995473
:10FA6000F1E7DC2905D0DD290AD0022303700B2041
:10FA700010BD511C43688160C02199540023E9E7FF
:10FA8000511C81604368DB21F7E7C029DBD10023EB
:10FA900003708360D7E70E20EAE70420E8E7184602
:10FAA000E6E7000038B5074C051E04F1080318BF4F
:10FAB0001C4623682BB11A6822605B682846984769
:10FAC000F7E738BD406D002020B9054B01225A7080
:10FAD000FFF7E8BF012802D1014A9070F8E77047AC
:10FAE000386D002038B50C4C23789BB90B48636007
:10FAF000A3602361E36000F0E5F8054600F0EEF84E
:10FB000001232370064BD3F800340BB10123A370FB
:10FB1000284638BD8525F5E7386D0020C9FA0E0066
:10FB20000000014038B5134C6378054603F0FF0030
:10FB300073B115B16B68002098470020FFF722FBD6
:10FB40006368013363600020BDE83840FFF71CBBE9
:10FB5000FFF718FB25B1A26813463BB92A60A560E0
:10FB60006368002BECD100F0CFF8E9E79D42F7D0B5
:10FB70001B68F2E7386D002038B5084C0020FFF70D
:10FB800001FB6368013B6360656815B900F0C8F864
:10FB900065700020BDE83840FFF7F6BA386D0020E8
:10FBA00010B5074C23784BB9064B002808BF184600
:10FBB00000F00EF908B90123237010BD8520FCE781
:10FBC0004C6D0020237C0F0008B500F030F9BDE833
:10FBD000084000F033B910B50446FFF7F5FF2046A2
:10FBE00000F018F900F01CF9002010BD024AD2F80C
:10FBF0000034002BFBD0704700E001400A4908B5F3
:10FC00000223C1F80435BFF36F8FBFF34F8FC1F8E4
:10FC10000805FFF7EBFF0023C1F80435BFF36F8F32
:10FC2000BFF34F8F08BD00BF00E0014010B5094C85
:10FC30000123C4F80435BFF36F8FBFF34F8F01600A
:10FC4000FFF7D4FF0023C4F80435BFF36F8FBFF371
:10FC50004F8F10BD00E001400E4B10B50124C3F8DA
:10FC60000445BFF36F8FBFF34F8F01EB8204401A3F
:10FC7000A14208D1074B0022C3F80425BFF36F8FC0
:10FC8000BFF34F8F10BD431851F8042B1A60FFF7D4
:10FC9000ADFFEDE700E0014050E8002F02EA01036C
:10FCA00040E8003C9CF0000FF6D11046704700F190
:10FCB0008040002382B0036003680193019B02B07F
:10FCC00070470000044A137923B901211060918024
:10FCD0001846704785207047506D0020084B1A6801
:10FCE000D20704D4C02283F8002301221A604FF007
:10FCF00080420123C2F81835024A1370704700BFD2
:10FD000000E100E0F58E002008B54FF48070FFF7A9
:10FD1000CEFF4FF080430122C3F804231A6008BDD0
:10FD20004FF08042012108B54FF48070C2F80813EB
:10FD3000FFF7BDFF064B1960D2F80C3403F0011336
:10FD4000B3F1011FF8D0034B00225A7108BD00BF68
:10FD500004000040506D002010B5124B1B6873B1B9
:10FD60004FF48070FFF7A3FF4FF080430122C3F8E8
:10FD700008230D4B587910B95A711B6898470B4BE3
:10FD80001B6873B14FF48270FFF791FF4FF080430F
:10FD90000222C3F80823044B01201B68BDE8104071
:10FDA000184710BD00010040506D002004010040C4
:10FDB00000F1804382B01A68002A14BF012000209D
:10FDC00004D000221A601B680193019B02B07047A7
:10FDD0000E4B1A78C2B902784FF08041C2F340024C
:10FDE000C1F88025027802F00102C1F87825084A9E
:10FDF0001168C90704D4C02182F8001301211160E1
:10FE000001221A700020704785207047F68E00206E
:10FE100000E100E0014B02681A607047606D00204D
:10FE20004FF080434FF46072C3F8042370474FF0E3
:10FE300080434FF46072C3F808237047014B0022DF
:10FE40001A607047606D002010B54FF08043D3F802
:10FE50000443620707D54FF48470FFF7A9FF10B180
:10FE60001E4B1B689847A30608D54FF48A70FFF70E
:10FE70009FFF18B11A4B00201B689847600608D5F1
:10FE80004FF48C70FFF794FF18B1154B01201B68DD
:10FE90009847210608D54FF48E70FFF789FF18B1F7
:10FEA000104B00201B689847E20508D54FF490706E
:10FEB000FFF77EFF18B10B4B01201B689847A30585
:10FEC0000AD54FF49270FFF773FF28B1054B02205B
:10FED0001B68BDE81040184710BD00BF586D0020DA
:10FEE0005C6D0020606D002008B5FFF7ADFFBDE838
:10FEF0000840FFF731BF0000064A10F0800F00F005
:10FF00000F0314BFD2F81005D2F81405D84000F042
:10FF10000100704700700240034B1868A0F108030D
:10FF200058425841704700BF30010010054B186817
:10FF3000043B1B68082B03D1003018BF0120704719
:10FF4000002070473401001030B54C689C4209D243
:10FF5000002545600968016093420CD1201C18BF40
:10FF6000012030BD43600D6805600868E41A18443C
:10FF70004C600860F0E70020F3E74B689A4228BF26
:10FF80001A460B68C0E9003248680B68801A48605E
:10FF90001A4400300A6018BF012070474B689A422B
:10FFA00028BF1A4662B10B68C0E900324B689B1A41
:10FFB0004B600B68101C13440B6018BF0120704786
:10FFC0001346F1E7054B10F0800FA3F1900208BF34
:10FFD000134600F00F0003EB00107047006E002086
:10FFE00010F0800F14BF0023102300F00F001844FE
:10FFF0007047000008B5FFF78FFF10B1034B0022D8
:02000002F0000C
:100000001A60034B00221A7008BD00BF1C7C02401E
:10001000656D002007B5084A00231370074A019355
:10002000137001238DF80430054B01A81B68984715
:1000300003B05DF804FB00BF646D0020946E0020E7
:10004000906E002070470000F8B54D680B4F954248
:1000500028BF15460C4606462A460968384606F06B
:10006000BBF8C6E9007560682368401B60601D44EA
:100070000030256018BF0120F8BD00BF986E002039
:10008000F8B54C68944228BF144606460D468CB11C
:10009000094F09682246384606F09EF837607460BA
:1000A0006B681B1B6B602B68201C23442B6018BFE4
:1000B0000120F8BD0460F2E7986E002008B500202A
:1000C000FFF760F8084B094A1868032148B949F25C
:1000D00075301860116018600020BDE80840FFF717
:1000E00053B81160F8E700BF00EC064014ED06407D
:1000F00008B50020FFF746F8084B094A186848B9C8
:1001000049F275311960106019600020BDE808409F
:10011000FFF73AB800231360F7E700BF00EC064092
:1001200014ED064007B500238DF804300B4BD3F8CF
:100130002025ADF80620D3F8C034094A002B1368F7
:100140000CBF4FF480714FF001210B431360054B3E
:1001500001A81B68984703B05DF804FB00700240DB
:100160006C6D0020906E002008B50146FFF742FF3D
:100170000846FFF727FF837B032B0AD10846FFF7CA
:100180002FFF01218140C9430448BDE80840FFF723
:1001900083BD0368002BF1D008BD00BF686D00204F
:1001A0008720FFF7E1BF8620FFF7DEBF8520FFF73E
:1001B000DBBF8420FFF7D8BF8320FFF7D5BF8220A5
:1001C000FFF7D2BF8120FFF7CFBF000008B5FFF7D0
:1001D00011FF084B93F89E20032A06D16FF001010E
:1001E0000548BDE80840FFF757BDD3F89030002B15
:1001F000F4D008BD706D0020686D0020FFF7E6BFE9
:1002000073B5012202FA01F51E491F4E0B6810F06A
:10021000800F43EA050304460B6027D000F00F026D
:100220001A4B33F8123003F1804303F51C331A687C
:100230004AB100221A60BFF36F8FBFF34F8F80283F
:1002400011D0FFF791FF316829400AD106238DF8BC
:1002500004308DF806408DF807100D4B01A81B687F
:10026000984702B070BDFFF7B1FFECE733681D425D
:10027000F7D106238DF804308DF806008DF807209D
:10028000EBE700BF6C6D0020686D0020347C0F0030
:10029000906E002008B5054B1A781046FFF7A0FEB7
:1002A000BDE8084001461046FFF7AABF946E002043
:1002B00007B5FFF79FFE0D4B93F88E20032A11D050
:1002C000D3F8803073B96FF080710948FFF7E4FC10
:1002D00006238DF804300823ADF80630054B01A83D
:1002E0001B68984703B05DF804FB00BF706D0020E9
:1002F000686D0020906E002007B5FFF77BFE104B65
:1003000093F81E21032A07D16FF480710D48FFF77F
:10031000C3FC03B05DF804FBD3F81031002BF8D117
:100320006FF480710748FFF7B7FC06238DF804309F
:100330008823ADF80630044B01A81B689847E8E70E
:10034000706D0020686D0020906E002013B5214B69
:10035000D3F80044C3F80044BFF36F8FBFF34F8F4F
:10036000BFF36F8FBFF34F8FE1050BD51A4B0122FF
:100370001A700023019302238DF80430174B01A853
:100380001B689847A2050AD5134A002301931370EE
:1003900003238DF80430114B01A81B6898476305AF
:1003A00015D50D4A137893B10A4900231370012221
:1003B000C1F808258A65BFF36F8FBFF34F8F019394
:1003C00004238DF80430054B01A81B68984702B040
:1003D00010BD00BF00700240646D0020906E0020D0
:1003E0002DE9F04F644B87B01A780193002A6BD146
:1003F000DFF8A4A1DFF884B1604BDAF800101C68C4
:10040000214061D011F0012461D094FAA4F4002CB1
:1004100063D0B4FA84F40F2C61D9A4F11005EDB2C5
:100420002846FFF7CFFD4FFA85F905F00803B9F12B
:10043000000F06460093828954DAD0E9003104A8FF
:10044000984700B93060FFF767FD10B14C4B82222E
:100450001A60019B059A049801211970A140B368A4
:10046000DBF80040134424EA0101B9F1000FCBF896
:100470000010B36005F00F050099424B6CDA0029BB
:1004800062D0C3F8A006C3F8A426042303EB8503B7
:1004900003F1804303F51C3301221A60BFF36F8F11
:1004A000BFF34F8F384B394A394913EA290938BF0E
:1004B000914639F8153003F1804303F51C331A686F
:1004C00012B90A68002AFAD007B0BDE8F08F91FA95
:1004D000A1F111B1B1FA81F49DE720249DE744F028
:1004E00080059DE7009B27493BB3D1F8C08418F4F1
:1004F000803F18BF4FF0000843467168376804A872
:10050000B847049B002B9CD0059B434599D2012101
:100510004FF00208A14086F80E80C9435046FFF70D
:10052000BBFB06238DF80C301A4B8DF80E508DF85E
:100530000F801B6803A898475EE705F00F0303F5DB
:10054000947351F82380D7E7142101FB0533C3F8D6
:100550000006C3F8042698E729B1C3F8A007C3F83A
:10056000A427282392E7142101FB0533C3F80007D1
:10057000C3F80427F5E700BF656D00206C6D00200F
:100580001C7C024000700240347C0F00507C0F0045
:1005900000710240906E0020686D002038B5134B4A
:1005A000D3F86C44C3F86C44BFF36F8FBFF34F8F25
:1005B00001251CB9BDE83840FFF712BF94FAA4F337
:1005C00073B1B3FA83F30F2BD9B20BDDA1F1100095
:1005D000C0B205FA01F324EA0304FFF711FEE8E7CD
:1005E0002021F3E741F08000F3E700BF00700240F4
:1005F00037B50446FFF7FEFC2046FFF7E3FC837B9C
:10060000032B0CD12046FFF7EBFC01218140C943AD
:100610000F48FFF741FBFFF7E3FE03B030BD05686D
:10062000002DF8D12046FFF7DBFC01218140C943B2
:100630000748FFF731FB06238DF80430054B8DF892
:1006400006408DF807501B6801A89847E3E700BFF4
:10065000686D0020906E00200720FFF7C9BF0620BC
:10066000FFF7C6BF0520FFF7C3BF0420FFF7C0BFD9
:100670000320FFF7BDBF0220FFF7BABF0120FFF73D
:10068000B7BF0000024A00231360024A137070478C
:10069000906E0020666D002008B5404B4FF400625C
:1006A000C3F80024BFF36F8FBFF34F8FFFF73EFCFB
:1006B00008B1FFF703FDFFF72FFC80B10020FEF724
:1006C00061FD374B374A1868C021002860D149F2D4
:1006D00075301860116018600020FEF755FD2F4B33
:1006E0000122C3F80025BFF36F8FBFF34F8FD3F8FC
:1006F00000241205FBD54FF40062C3F80024BFF3B9
:100700006F8FBFF34F8FFFF707FC78B10020FEF724
:1007100039FD234B234A186800283BD149F2753133
:100720001960106019600020FEF72EFDFFF7FEFB38
:1007300030B1FFF7DDFCFFF7F9FB08B1FFF7BEFCB6
:10074000FFF7EAFB48B1184B40F2E3721A6040220F
:100750005A60BFF36F8FBFF34F8F104B0021802281
:10076000C3F81C25C3F83015104B40F2FF121A6075
:100770000F4B1960FFF73EFC0E4B19700E4B022217
:100780001A70FFF7D3FB40B1BDE80840FFF7B0BCDB
:100790001160A1E700231360C5E708BD00700240A7
:1007A00000EC064014EC0640007802406C6D00201E
:1007B000686D0020946E0020666D00200C4B0022B6
:1007C0001A700C4B0C4A00280CBF184610460B4BF5
:1007D0000B4AC3F80403C02182F82713802151601B
:1007E0000122C3F80425BFF36F8FBFF34F8F70470B
:1007F000646D00200714C0010714E001007002407E
:1008000000E100E0024B1878003018BF012070476B
:10081000666D0020034B1878012894BF002001204A
:10082000704700BF666D002010B50020FEF7AAFCDF
:10083000114B1B7803F0FF04A3B1104AD2F82C35FA
:10084000BBB10023C2F82C35FFF766FB50B10C4B4F
:100850000C4A1C68C02154B949F275341C601160FF
:100860001C6004460020FEF78FFC204610BD11607E
:10087000F7E71C46F6E700BF646D002000700240F9
:1008800000EC064014EC0640024B034AC3F8082370
:10089000704700BF0070024004148001024B034AFD
:1008A000C3F80423704700BF0070024004148001A5
:1008B000014B00221A707047646D002008B5FFF7E5
:1008C00081FB818108BD0000F8B51C4B1C7894BBEE
:1008D0001B4A106001221A7025462646EBB213F01F
:1008E000080F43F080070CBF40214FF400713846D9
:1008F000FFF7E4FF3846FFF765FB0135092D8673E6
:1009000006608660EAD1402100252046FFF7D6FF29
:100910002046FFF757FB0134E4B2092C85730560CC
:10092000856001D10020F8BD14F0080F14BF4FF40A
:1009300000714021E9E70820F5E700BF666D00205F
:10094000906E002008B5FFF73DFB808908BDFFF7DA
:10095000D3BA00002DE9F041054600200E46FEF70F
:1009600011FC15F00F0103D1294B1B78AB424BD181
:10097000284B294A1C681368E443A4B228461C4348
:10098000FFF72EFB012787403C4090463ED128468A
:10099000FFF718FB0C232A06844603FB01F32FD52F
:1009A0001E4A3168134401F06041B268B1F1005F42
:1009B00002F001021FD1E2B9194ACCF8002096E8F2
:1009C000070083E80700CCF804300023CCF8083097
:1009D0008CF80E30D8F800301F43124BC8F8007066
:1009E0008022C3F804210020FEF7CEFB2046BDE89C
:1009F000F0810D4AE1E70AB90C4ADEE70C4ADCE770
:100A00000C4A13440C4AD8E71024ECE71124EAE717
:100A1000946E00206C6D0020686D0020F88E002020
:100A20007BFF0E0000E100E09DFF0E0049000F007B
:100A300081000F00648F002049FF0E00F8B50646C4
:100A400000200D46FEF79EFB330703D1154B1B78A4
:100A5000B34222D1144B154F1C683B68E443A4B247
:100A600030461C43FFF7BCFA012181400C4016D1EF
:100A70003046FFF7A7FA84602B6803606B68436019
:100A80003B68847319430A4B39608022C3F8042100
:100A90000020FEF779FB2046F8BD1024F8E711246A
:100AA000F6E700BF946E00206C6D0020686D00209A
:100AB00000E100E000487047986E0020044B40F4CD
:100AC0008070C3F81805BFF36F8FBFF34F8F704767
:100AD00000700240020713D400F00F0310F0800FE3
:100AE000084A0BBF03F5887303F5847302EB830395
:100AF00052F8230008BF5868431E584258417047B7
:100B00000020704700700240064BC3F80C05BFF38D
:100B10004F8F40F48070C3F80C05BFF36F8FBFF3A5
:100B20004F8F70470070024010B508220021044624
:100B300005F054FC0E4BD3F880242270D3F88424A3
:100B40006270D3F88824D3F88C1442EA01226280C0
:100B5000D3F89024D3F8941442EA0122A280D3F867
:100B60009824D3F89C3442EA0323E38010BD00BFED
:100B700000700240034B01221A60BFF36F8FBFF376
:100B80004F8F70474C70024013B5FFF733FA0F4B8D
:100B90009A7B032A06D16FF480310D48FFF77CF869
:100BA00002B010BD1C6874B96FF480310848FFF7BB
:100BB00073F806238DF80430064BADF806401B6829
:100BC00001A89847ECE7FFF7D5FFE9E7706D002033
:100BD000686D0020906E0020034B01221A60BFF365
:100BE0006F8FBFF34F8F704750700240034B01224D
:100BF0001A60BFF36F8FBFF34F8F7047547002407E
:100C0000014B1878704700BF946E002010B5044661
:100C10000020FEF7B7FA2046FFF7E2F90D4A01235C
:100C200003FA00F0136823EA0003136014F00802CB
:100C30000AD104F00F0404F59474074B43F8242000
:100C4000BFF36F8FBFF34F8F0020BDE81040FEF75A
:100C50009BBA00BF6C6D002000700240F7B50446DF
:100C60000020FEF78FFA2046FFF7ACF90546204634
:100C7000FFF7B6F9012314F0800F03FA00F02949B9
:100C800017D10B6830EA030309D02046FFF7BEFFF7
:100C90000323AB730020FEF777FA03B0F0BD2B609F
:100CA0000A68C04302400A601F4A13680340136089
:100CB000EEE7230711D4802C1C4E1D4B29D004F0E5
:100CC0000F0202F2DA32520032601A681E68D2B2A3
:100CD00042F0020232431A601B68134E0A683368FE
:100CE00062EA03070742D5D022EA00021843002334
:100CF0000A602B600323AB738DF807300D4B306017
:100D000006228DF804208DF806401B6801A898473C
:100D1000C0E740F2B47232601A681E68D2B242F084
:100D20000402D7E7686D00206C6D00200078024057
:100D300004780240906E0020FFF790BFF7B5174B84
:100D4000174CD3F880542368164EDA43164B377885
:100D50001B6892B238461A43FFF742F9012303FA9F
:100D600000F0104202D03846FFF778FF6FF0011113
:100D700005F080050C483570FEF78EFF236843F0C0
:100D8000010323600023019305238DF80430074BF2
:100D900001A81B68984703B0F0BD00BF0070024077
:100DA0006C6D0020946E0020686D0020906E002015
:100DB0002DE9F0411B4BD3F80413002301241D46F9
:100DC00071B9194F03F4000623F400044FF0010831
:100DD000D4B9FFF705FB1EB3BDE8F041FFF7AEBF86
:100DE00091FAA1F21148B2FA82F29600304404FA64
:100DF00002F206682EB10560BFF36F8FBFF34F8F0D
:100E0000134321EA0201DBE794FAA4F5B5FA85F56C
:100E100057F8253008FA05F5984724EA0504D7E77E
:100E2000BDE8F08100700240647C0F000071024058
:100E3000F8B5134E134A34681268240C2404144382
:100E400001271CB940F2FF133360F8BD94FAA4F3F4
:100E500083B1B3FA83F30F2BDDB20DDDA5F11000E2
:100E6000C0B2030701D4FFF7F9FE07FA05F524EA3B
:100E70000504E6E72025F1E745F08000F1E700BF33
:100E80006C6D0020686D002038B50E4C8025C4F8CC
:100E9000845163681B0613D5FFF7CAFF0A4B002273
:100EA000C3F80425BFF36F8FBFF34F8FC4F884508E
:100EB000BFF34F8FBFF36F8F4FF0FF32C3F808239C
:100EC00038BD00BF00E100E00070024008B5FFF748
:100ED000DBFF094BD3F80423C3F808230022C3F82F
:100EE0000025BFF36F8FBFF34F8FFFF783F8034BDE
:100EF00001221A7008BD00BF00700240666D00201C
:100F000010B50020FEF73EF90E4B1B7803F0FF04EE
:100F10002BB900240020FEF737F9204610BDFFF75B
:100F200087FF094AD2F8003413F40073F1D101218C
:100F3000C2F82C15D2F80014890544BFC2F82C352C
:100F40001C46E7E7646D00200070024010B50446BF
:100F5000FFF784FE134A04F00F0064B2002C4FF038
:100F60000103B4BFD2F81015D2F8141503FA00F338
:100F70006FEA0303B5BF0B400B40C2F81035C2F84F
:100F80001435BFF36F8FBFF34F8F074B074A13EA38
:100F9000240438BF14460123225C9340014AC2F85E
:100FA000083310BD007002402A7C0F00467C0F0001
:100FB000F8B5224A224B234D46B213EA260338BF26
:100FC000134600F00F070121DB5D01FA03F3C5F8BA
:100FD00004330446FEF790FF70BB002EB4BFD5F873
:100FE0001035D5F8143501FA07F1B5BF1943194387
:100FF000C5F81015C5F81415BFF36F8FBFF34F8FE9
:10100000D7B1002E18DB14F0080515D12846FEF7DD
:10101000B9F82046FFF7FAFD2046FEF7E1FF0A4A3D
:10102000012303FA00F0136823EA00031360284643
:10103000BDE8F840FEF7A8B8F8BD00BF467C0F0039
:101040002A7C0F0000700240686D0020020610B577
:1010500004460AD4030708D400F00F029200074B9D
:101060009B58012B01D1FFF7D1FD054BC3F8184563
:10107000BFF36F8FBFF34F8F10BD00BF44740240AA
:101080000070024028B139B10023C1E90030184690
:10109000704748F21050704748F21350704730B113
:1010A000036848F240508B4208BF0020704748F266
:1010B0001050704728B148F21150914208BF0020EB
:1010C000704748F21050704770B506460C461D46F2
:1010D000FFF7D8FF50B9B3794AB1AB420AD11146F4
:1010E0002046FCF7F7F808B9044B236070BD48F2BE
:1010F0001050FBE748F21150F8E700BF7052464D20
:101100002DE9F0470C4605461149204616469846FB
:10111000DDE90879FFF7C3FFA0B963685A7949464A
:1011200052003846FFF7C6FF60B94EB165B1089767
:101130004346324621462846BDE8F047FCF7DAB878
:1011400048F21050BDE8F08748F21550FAE700BFAA
:101150007052464D10B5044638B149B141600B6834
:10116000984708B9044B236010BD48F20150FBE7D3
:1011700048F21050F8E700BF6E524648F0B41346EC
:1011800048B10768094EB7420AD161B12AB1436834
:10119000F0BC5B68184748F201531846F0BC704732
:1011A00048F20253F9E748F21053F6E76E52464808
:1011B000F0B460B107680C4EB7420CD171B143680E
:1011C0001568DC68A5420CD39B68F0BC184748F250
:1011D0000150F0BC704748F20250FAE748F2135051
:1011E000F7E748F21450F4E76E5246482DE9F04113
:1011F000044617469846DDE90656FFF7ABFF60B98F
:10120000424639462046FFF7B9FF30B932462946F3
:101210002046BDE8F041FFF7CBBFBDE8F0810000FC
:10122000F8B50A4F0A4C0B4DE41B0121E408297064
:101230000026A64203D102232B700020F8BD57F8E8
:10124000363098470028F9D10136F2E7509C0F005C
:10125000589C0F00D86E002001390144814200D211
:10126000704703780A7800F8012B01F80139F5E797
:10127000013A02440139824200D2704711F8013F1D
:1012800002F80139F7E770B516460D46FFF7F0FF93
:101290003246A9193044BDE87040FFF7E9BF38B5C0
:1012A0000D460446FFF7D8FF29466019BDE83840CF
:1012B000FFF7D2BF08B507281BD8DFE800F00412FB
:1012C0001A1A1A041A040120FBF7E3FE0020FBF7A8
:1012D000A9FE0120FBF7A6FE0220BDE80840FBF7AF
:1012E000B5BE0120FBF7B2FE0220BDE80840FBF7C7
:1012F00099BE08BD08B5FBF763FDFBF735FB002879
:10130000FBD10B4D642445F001054FF47A40A8470A
:10131000013CFAD1BFF34F8F0649074BCA6802F46C
:10132000E0621343CB60BFF34F8F00BFFDE700BF08
:10133000307D0F0000ED00E00400FA0508B5064A14
:10134000064B07499B1ADB081B04024643F00100C9
:10135000FBF76EFCFFF7CEFF609C0F00709C0F0048
:10136000107D0F0010B500F0CFFD4FF4805100202C
:1013700000F0F6F908B1FFF7E1FF1548C0F57E214E
:1013800000F0EEF901460028F5D11248124CFBF7A7
:1013900099FAFBF7D7F9114B1149E41AE408240430
:1013A00044F00300FBF740FC0E4800F0A5F80028CD
:1013B000E1D1FBF7D9FA0028FBD10B4944F0010039
:1013C000FBF732FCFBF7D0FA0028FBD1D3E700BFD4
:1013D00000C00E009D1A0F00709C0F00609C0F0053
:1013E000367D0F00B5120F00427D0F00014B012228
:1013F0001A707047FC72002008B5FBF7E1FCFBF7A0
:10140000B3FA0028FBD1BFF34F8F0549054BCA68DB
:1014100002F4E0621343CB60BFF34F8F00BFFDE7E0
:1014200000ED00E00400FA0508B50948094B0A4937
:10143000C01AC008000440F00400FBF7F5FB074B9E
:10144000074800221A70BDE8084002F0DDB800BF6E
:10145000709C0F00609C0F00677D0F00FC720020E5
:10146000F9130F0008B50748074B0849C01AC00810
:10147000000440F00300FBF7D7FBBDE80840FFF78E
:10148000D3BF00BF709C0F00609C0F007D7D0F00DC
:10149000831E10B50446052B08D8DFE803F01103BE
:1014A00003070E0E0849002000F0B8FA074B1B682E
:1014B0004BB12046BDE810401847FFF7B5FFF5E7F0
:1014C00001F088FFF2E710BD65140F0000730020E3
:1014D00008B50648064B0749C01AC008000440F08A
:1014E0000400FBF7A1FB002008BD00BF709C0F00AB
:1014F000609C0F00A67E0F002DE9F041634B644C09
:101500006449E41AE408240444F00406054630461D
:10151000FBF78AFB604B00201D6002F08BF807464A
:1015200050B900F015FC012800F0A48010F0FF0F66
:1015300005D0022800F0A6800320BDE8F0814FF01E
:101540008043D3F80024D20342D54FF48032C3F84D
:101550000024B846514D2B6A012B49D0504944F024
:101560000300FBF761FB4F493046FBF75DFB00F0E2
:1015700025FD4D4A20211820FBF7CEFF08B1FFF7CB
:10158000DDFE4A4B1A6802F0F902B12A02BF1A685E
:1015900002F04E021A60FFF79BFF0028CCD13846BC
:1015A000434900F03BFA434801F022FA0028C3D136
:1015B00041493046FBF738FB00F046FDFCF730F8B8
:1015C000FBF7D2F90028F7D120BF40BF20BFF3E7D7
:1015D000D3F8202502F0F902A92A06D1D3F8202554
:1015E00002F05602C3F82025B3E74FF00108B1E737
:1015F00043F204031A68314B9A4211D16A6BB8F175
:10160000000F03D195F86032012B09D04FF48051BF
:101610002B4802F03BFE18B92A4944F00200A0E72B
:1016200002F010F9AA690146B8F1000F03D195F84C
:10163000A132012B05D0244802F028FE08B9234925
:10164000EBE723493046FBF7EFFA184B1B6803F032
:10165000F903B12B01D11F4986E702F019F80028E0
:101660007FF46AAF1C4B18701C4801F0CDFF00F0EE
:1016700039F801E0FFF7D8FE194944F00100FBF703
:10168000D3FA59E74FF4A02771E700BF609C0F0021
:10169000709C0F00917D0F0000730020D08F002000
:1016A000A87D0F00467E0F00DC6E00201C05004068
:1016B00065140F0091140F00967E0F00DBE5B15109
:1016C00030920020D67D0F0071920020117E0F0015
:1016D000397E0F00697E0F00FC720020ED130F00B1
:1016E0008A7E0F0070B5164B164C174D1749E41A39
:1016F000E408240444F004064FF480523046FBF71B
:1017000097FAD5F8802012493046FBF791FA4FF04E
:10171000FF33C5F88030C5F8803101F08CFA20B174
:101720000C4944F00100FBF77FFAFBF71DF9002894
:10173000FBD14FF48050BDE8704000F033B800BFDB
:10174000609C0F00709C0F0000E100E0C07E0F0065
:10175000F67E0F00207F0F0080F308880847000006
:10176000C1F30B0270B5B2B9B0F57F2F13D80C4E90
:101770003468072C11D8230103F1804505F5F035B5
:101780000134C5F80008C5F804180221C5F8081886
:101790003460104670BD0722FBE70422F9E700BF62
:1017A0000473002038B504462148C0F58011FFF7C6
:1017B000D7FF054668B11F4B1F482049C01AC00813
:1017C000000440F001002A46FBF732FA2846FFF7F2
:1017D000B5FD02F037F81A4B996901F6FF7121F453
:1017E0007F6121F00F0101440020FFF7B9FF05469A
:1017F00068B1104B10481349C01AC008000440F0EB
:1018000001002A46FBF714FA2846FFF797FDEFF38D
:1018100005830023D4E9000183F3148883F310883F
:1018200083F3118883F31388BDE83840FFF794BF32
:1018300000C00E00609C0F00709C0F00557F0F00D1
:10184000D08F00208C7F0F0037B51E4B05461E48F9
:10185000C01AC00800040C462A461C4940F0040087
:10186000FBF7E6F91A4A6FF07F41D2F80435A1423E
:1018700028BF21460B44611A481E942896BF963112
:10188000696069602D7B144623F07F4305F5A872DB
:1018900098BF963B44F822300E4B4FF4F86043F06B
:1018A000010398470C4BAA00134400221A601B68DE
:1018B0000193019B4FF48033AB40C4F8043303B071
:1018C00030BD00BF609C0F00709C0F00F67F0F00C2
:1018D00000400240F07F0F004041024018490A7862
:1018E00084B0002A29D14FF08043A020D3F81834C7
:1018F000DB035EBF134B01221A60134A00231360FF
:1019000012680392039A114A136012680292029AB3
:101910000F4A136012680192019A0E4A82F824035A
:10192000102050600C4A0D48C2F8083501230360AE
:1019300002201360C2F804030B7004B0704700BFAC
:101940000C7300200800004000410240404102406A
:101950004441024000E100E00040024008400240F3
:101960002DE9F743234B1A6842B123490A68013233
:101970000A6000221A601B680093009B1F4D204BD9
:10198000204C214EDFF88C80DFF88C901F4FED1A31
:10199000ED082D0445F004053368CBB10023336016
:1019A00033680193224641462846019BFBF740F9E4
:1019B000227B17494FF480339340C9F808332246FD
:1019C0002846FBF735F9616851B12046FFF73CFF27
:1019D0000436BE4204F11004DED103B0BDE8F0834A
:1019E000A16811B12046FFF72FFF2368002BEFD02D
:1019F0009847EDE70441024008730020709C0F00F7
:101A0000609C0F00200000204041024048410240FD
:101A1000D27F0F00C07F0F0000400240F8B5114B8D
:101A2000114E044611483768C01AC00800043A46EF
:101A30000D4640F004000E49FBF7FAF83A7B4FF4EC
:101A4000803393400B4AC2F808334CB13668FFF735
:101A500045FF356021463046BDE8F840FFF7F4BE4B
:101A6000F8BD00BF609C0F0040000020709C0F007C
:101A7000C07F0F000040024070B5074B1C680E4647
:101A8000A0600546FFF72AFF266029462046BDE8EC
:101A90007040FFF7D9BE00BF44000020034A044B4A
:101AA0001068D3F8043503EB00607047087300201A
:101AB00000400240014B01221A7070470D73002054
:101AC0002DE9F341214BDA6A5F6A9D6CAC2A1FD184
