:02000002E0001C
:10C0000000000420B1C20E00D9C20E00DBC20E0037
:10C01000DDC20E00DFC20E00E1C20E000000000013
:10C02000000000000000000000000000E3C20E005D
:10C03000E5C20E0000000000E7C20E00E9C20E00DB
:10C04000BDFD0E00EBC20E00EBC20E00EBC20E00F7
:10C05000EBC20E00EBC20E00EBC20E00EBC20E00F4
:10C06000EBC20E00EBC20E00EBC20E00EBC20E00E4
:10C07000EBC20E00EBC20E00EBC20E00EBC20E00D4
:10C08000C51E0F00EBC20E00EBC20E00EBC20E008D
:10C09000EBC20E00EBC20E00EBC20E00EBC20E00B4
:10C0A000EBC20E00EBC20E00EBC20E00EBC20E00A4
:10C0B000EBC20E00EBC20E0000000000000000000A
:10C0C000EBC20E00EBC20E00EBC20E00EBC20E0084
:10C0D00061180F00EBC20E00EBC20E00AD0C0F009A
:10C0E000EBC20E00EBC20E00B95F0F0000000000B3
:10C0F00000000000EBC20E0000000000EBC20E00CA
:10C10000000000000000000000000000000000002F
:10C11000000000000000000000000000000000001F
:10C12000000000000000000000000000000000000F
:10C1300000000000000000000000000000000000FF
:10C1400000000000000000000000000000000000EF
:10C1500000000000000000000000000000000000DF
:10C1600000000000000000000000000000000000CF
:10C1700000000000000000000000000000000000BF
:10C1800000000000000000000000000000000000AF
:10C19000000000000000000000000000000000009F
:10C1A000000000000000000000000000000000008F
:10C1B000000000000000000000000000000000007F
:10C1C000000000000000000000000000000000006F
:10C1D000000000000000000000000000000000005F
:10C1E000000000000000000000000000000000004F
:10C1F000000000000000000000000000000000003F
:10C2000010B5054C237833B9044B13B10448AFF390
:10C2100000800123237010BDD40000200000000026
:10C22000BC940F0008B5034B1BB103490348AFF39F
:10C23000008008BD00000000D8000020BC940F0062
:10C24000A3F5803A704700BF154B002B08BF114B78
:10C250009D46FFF7F5FF00218B460F461148124A15
:10C26000121A09F045FF0C4B002B00D098470B4BDE
:10C27000002B00D098470020002104000D000B483F
:10C2800009F0ACFE09F0D8FE2000290004F0E6FF1A
:10C2900009F0AAFE000008000000000000000000F5
:10C2A00000000420D4000020D893002011600F006B
:10C2B0000649074A074B9B1A03DD043BC858D05078
:10C2C000FBDC00F0EDFEFFF7BFFF000098950F00CC
:10C2D00008000020D4000020FEE7FEE7FEE7FEE7AE
:10C2E000FEE7FEE7FEE7FEE7FEE7FEE70020704719
:10C2F00038B504462B482C4D02F01BFF2B4B294828
:10C300001C6002F02DFF2A4BED1AED082D0438B900
:10C31000284945F0010000F04DFC0324204638BDBB
:10C32000254B002140F603020330C3E90212586096
:10C330001970224B22495960224945F00405C3E98E
:10C340000212214A1A612149214A5A61284600F005
:10C3500031FC03F037FB8528044601D00028DDD1ED
:10C36000002003F08DFB04460028D7D102F0EAFD3F
:10C37000184801F059FA04460028CFD1164801F0B8
:10C38000F5FA04460028C9D11449284600F012FCE9
:10C3900001F0B6FA04460028C0D11149284600F041
:10C3A00009FCBBE758950F0030950F00780100207D
:10C3B000D0940F00BC6B0F001C1A0020041A002040
:10C3C000F1C30E00E5C30E00AC190020DD6B0F00B9
:10C3D000C8940F00F46C0F00D06C0F00F36B0F00CB
:10C3E000006C0F00011F014802F0DCBE58950F00E1
:10C3F00013B5074C0A4601AB0146204603F054FA38
:10C40000019A0448214602F013FA02B010BD00BFA1
:10C4100093190020D06C0F00083810B506283ED8BC
:10C42000DFE800F0081E2F3D3D3D0400BDE8104050
:10C4300001F080BA1A4B1B481B49C01AC0080004FF
:10C4400040F0030000F0B6FB04F060F908B901F019
:10C450006FFA164B1B6813B30120BDE81040184754
:10C460000F4B10481249C01AC008000440F00300E6
:10C4700000F0A0FB01F070FA0C4B1B687BB10220AE
:10C48000EBE7074B07480B49C01AC008000440F00F
:10C49000030000F08FFBBDE8104001F04DBA10BD65
:10C4A000D0940F0030950F001A6C0F007801002017
:10C4B0002D6C0F003F6C0F0001F0B6BB08B5037880
:10C4C0001BB9BDE8084001F0AFBB094A042101F0E7
:10C4D00029F858B1074B08480849C01AC008000499
:10C4E000BDE8084040F0010000F064BB08BD00BF9B
:10C4F000B9C40E00D0940F0030950F00496C0F00A6
:10C500002DE9F04799B1022939D123492348012265
:10C5100002F0B0F92249234B5B1ADB081B040246E8
:10C52000BDE8F047204943F0020000F047BB1D483A
:10C530001B4B194F1D4EDFF88490C01AC008000431
:10C5400040F0040840F001043978184803F0E0F99D
:10C55000824668B9D6E90112484608F0C1F9144884
:10C5600002F0FEFD054660B91249204600F022FBAC
:10C570000A480122394602F07DF90028E4D0BDE8DE
:10C58000F08702460C494046033500F017FBC6E928
:10C59000015A86F800A0EBE7C4190020D06C0F0008
:10C5A000D0940F0030950F00676C0F001C1A00200C
:10C5B00058950F008D6C0F00A86C0F00041A002016
:10C5C0007047000007B5044B0093044A402300F075
:10C5D00032F803B05DF804FBE1C50E002D1A00200F
:10C5E0002DE9F84388461446B2B10F4B0F4E032590
:10C5F000002743F00109224608EB0701002008F05C
:10C6000061FA0744241A48B933782BB14FF47A40C1
:10C61000C847013D02D13570BDE8F883012333706E
:10C62000002CE8D1F8E700BF006D0F002C1A0020A5
:10C63000704708F07BBAF0B595B01D46164608461F
:10C640000C4603F0D5F81A9B0D93CDE9086500253B
:10C650002B46082205A920460A958DF82C500C95EA
:10C6600003F0E2F8079B0293069B03939DF81430B6
:10C670008DF8115003F00302012A1DD1BDF81420DA
:10C68000059DC3F3C203C2F383168DF81030B200C8
:10C6900008230EA9204603F0C7F8C5F3952508AB7B
:10C6A0000093324602AB0EA9284600F0BBFB2046A1
:10C6B00003F0A2F815B0F0BD022AF8D1BDF816506B
:10C6C000C3F3C203C5F389158DF810300827082D70
:10C6D0002E4628BF08263B4632460EA9204603F0C8
:10C6E000A3F8AD1B08AB02AA31460EA8374400F0F0
:10C6F000FDFB002DEBD1DAE708B5FFF79AFF044800
:10C70000042100F0F5FA034B01225A7108BD00BF65
:10C7100080950F000C000020027812F0040316D060
:10C7200002F00303012B03D0022B09D00120704734
:10C730000A6800880232C0F3831002440A60F5E7F9
:10C740000B684288023303EB92130B60EEE7184646
:10C75000704700002DE9F04FDFF81CA10F4685B0AF
:10C760000446861C0020154602F064FCDAF804201A
:10C770003A60DAF808303F4F03F580539B1AA7F16F
:10C780000409A7F10808B3421AD30021002D6DD087
:10C7900004F00F04A40144F0050464F30F01DAF877
:10C7A0000430C3F30B020332334400204AF8221052
:10C7B000CAF8043002F040FC012005B0BDE8F08F5B
:10C7C0000121384602F091FC484602F0A9FC40469F
:10C7D00002F0A6FCDAF808000090C0F30B0003306A
:10C7E0000AEB80006946FFF797FF009B40BBC3F34D
:10C7F0000B020AEB8202D16801919A1C0133C3F348
:10C800000B030AEB83030092D3F80CB001F003038F
:10C81000012B23D0022B16D08346404602F083FC26
:10C8200010B1009BCAF808305946384602F05DFC4A
:10C83000DAF80830DAF8042003F580539B1AA2E7EF
:10C84000C3F30B00CBE7BDF80630C3F38913033302
:10C850004FEA1B4B02EB93030093DEE7BDF8043075
:10C86000C3F383134FEA1B4B1344F5E7A40544F0CD
:10C87000060194E75C5B0020401B0020064B074844
:10C8800010B500221A7002F06CFF044610B904487B
:10C8900002F0D4FF204610BD401B00206C950F0015
:10C8A0003C6D0F0030B50A4C71B10A4A0A49121B9F
:10C8B000D20800239A4201D1002030BD31F8235024
:10C8C000854202D00133F5E7034654F83300F4E71C
:10C8D000D0940F0058950F00D4000020094B013967
:10C8E00003EBC000032909D8DFE801F00A020406BF
:10C8F00004207047007970474079704700207047E6
:10C9000002207047D0940F0070470000034BD3E91A
:10C910000130C31A58425841704700BF401B0020E5
:10C920002DE9FF47FFF7F2FF0646002840F0E780B9
:10C93000744C04F58045A861BFF34F8FA368009342
:10C94000C3F30B03033304EB83006946FFF7E4FEF4
:10C95000009B10B1AA69002A61D0C3F30B029F1C8F
:10C96000013304EB8202C3F30B0304EB8303D268AD
:10C97000DB68029302F00303022B0192009759D166
:10C98000BDF806306048C3F38919B9F1500FC846A5
:10C9900028BF4FF0500868F38F1308F10801ADF875
:10C9A000063002F0F6FE0646002800F0948002F001
:10C9B0001FFF002301A90822304602F02BFFFB4392
:10C9C000C3F30B030133C7F30B010331B8EB830F40
:10C9D0004FEA830A04EB810129D908235246A8EBC8
:10C9E0000A08304602F016FF5FFA88F847490AF154
:10C9F0000803424609F10309304607EB990702F0A4
:10CA000009FF0097AB692F69002B54D0304602F024
:10CA1000F3FEFFF77BFF80F00100C6B203E062681F
:10CA20009A428DD8A260304604B0BDE8F087082352
:10CA30004246DFE7012B4ED1BDF804303248C3F344
:10CA40008311062928BF062161F38913023101F001
:10CA50000F018900ADF8043002F09BFE0646002865
:10CA600039D002F0C5FE0023082201A9304602F0A9
:10CA7000D1FE0027BDF80420C2F38312BB00974209
:10CA800003F10803BED200994A1CC1F30B01033124
:10CA9000009204EB81010422304602F0BBFE013714
:10CAA000E8E7FB685B7923B13B6831461B68384691
:10CAB0009847FB681F68002FF3D1304602F09CFEB8
:10CAC000384602F0B7FAAB690BB9009BA3600020AF
:10CAD00002F0B2FA9DE72C6954B90D4B0D480E498E
:10CAE000C01AC008000440F0020000F063F890E7AC
:10CAF000236820469B689847E3681C68ECE700269B
:10CB000091E700BF401B00206C950F004C1B0020DC
:10CB1000D0940F00E0940F00246D0F002DE9F3472F
:10CB200004460E46924601A9012218469946FFF78F
:10CB300011FE1E4F20B3019D4FF00008AA1CC845EE
:10CB400008EB020127D11A48002102F093FA80F382
:10CB50001000000440EA1440E4006B1C04F03804A8
:10CB6000C3F30B03C5F30B0544F0010407EB830388
:10CB7000033544EA881444EA8624D86047F82540FF
:10CB80003B781BB1FFF7CCFE0028FBD1FFF7BCFEC2
:10CB900002B0BDE8F087C1F30B0107EB81015AF841
:10CBA0002830CB6008F10108C9E700BF401B002016
:10CBB0005C5B002000231A46FFF7B0BF07B50123D6
:10CBC000019201AAFFF7AAFF03B05DF804FB07B5C5
:10CBD000CDE9002302236A46FFF7A0FF03B05DF80A
:10CBE00004FB1FB5CDE90123069B039301AA032390
:10CBF000FFF794FF05B05DF804FB1FB5CDE90023F6
:10CC0000069B0293079B03936A460423FFF786FF64
:10CC100005B05DF804FB7FB5CDE90123089B0393C4
:10CC2000099B04930A9B059301AA0523FFF776FF4E
:10CC300007B05DF804FB00002DE9F7430446D01C63
:10CC40008846164601A900228008FFF783FD264D7D
:10CC500098B3019FB81C0190C0F30B00C0F580533E
:10CC6000B6EB830F00F103004FEA830905EB800068
:10CC70002AD83246414609F013FA1C48002102F036
:10CC8000F9F980F310007B1CC3F30B0305EB83035E
:10CC9000220C42EA0042DA60C7F30B07E3000337D5
:10CCA00003F0380343F0020343EA865255F8273075
:10CCB00003F47C13134345F827302B787BB9FFF737
:10CCC00023FE03B0BDE8F0834A46414609F0E8F987
:10CCD000A6EB090208EB090105F10C00CBE7FFF711
:10CCE0001FFE0028FBD1EAE7401B00205C5B002010
:10CCF00030B511490C690023224642B9C46823713A
:10CD00000C6954B90861C1680A60184630BDD26820
:10CD100015799D4209D01268EFE7E468C26824687B
:10CD200014600A69D2681060EFE701330A2BE3D17F
:10CD30004FF0FF33E9E700BF405B002038B5084BF8
:10CD400003F58042012514691D7004B938BDE368FC
:10CD50005D71236820465B689847E3681C68F4E7C8
:10CD6000401B002007B503460846197A052911D053
:10CD70005B7A2BB1094A0A49019002F033FA019813
:10CD80000849019002F02EFA019803B05DF804EB17
:10CD900002F01DBA002AF8D0F2E700BF486D0F007C
:10CDA000DF8E0F006A6D0F0030B5C38885B0044672
:10CDB0000D4633B1144A00921449154A284602F030
:10CDC00011FA217A05291DD0637A4BB1A088FFF7AB
:10CDD00085FD104B104953F82020284602F002FA36
:10CDE000227A0E4BA08853F8222003920021FFF7ED
:10CDF00059FD039A0A490346284605B0BDE830406C
:10CE000002F0F0B905B030BD486D0F00556D0F0050
:10CE10004D6D0F00D86D0F00DF8E0F00FC6D0F0001
:10CE20006D6D0F002DE9F04385B01F460C9D00236A
:10CE300095F80C902B7306460C46904629463846CA
:10CE4000FFF7B2FFB8F1060F09D8DFE808F00412C7
:10CE5000181F283340003146284602F0C3F900224B
:10CE600029463846FFF77EFF85F80C9005B0BDE8EF
:10CE7000F08322683146284602F0B4F9EFE7D4E99E
:10CE800000233146284602F0ADF9E8E7A368009395
:10CE90003146D4E90023284602F0A4F9DFE7E3682D
:10CEA0000193A36800933146D4E90023284602F099
:10CEB00099F9D4E723690293E3680193A368009387
:10CEC0003146D4E90023284602F08CF9C7E76369AC
:10CED000039323690293E3680193A36800933146A7
:10CEE000D4E90023284602F07DF9B8E708292DE9A6
:10CEF000F84F80460E4617461C463DD8002593F84D
:10CF00000C901D7319461046FFF74EFFDFF890A0F6
:10CF1000DFF890B0AE4231D918F8052059462046C6
:10CF200002F060F90135082DF4D11A491A4DDFF8E5
:10CF300078A0204602F056F94FF0000B5E4524D948
:10CF400018F80B207E2A1ED8511C144BC9B2595C0C
:10CF500011F0970F08BF2E225146204602F042F9E9
:10CF60000BF1010BBBF1080FE8D101222146384635
:10CF7000FFF7F8FE84F80C90BDE8F88F5146204684
:10CF800002F030F9CEE72E22E6E72946204602F0ED
:10CF900029F9E5E7816D0F007F6D0F0080930F0089
:10CFA0007D6D0F00776D0F00836D0F00074B1B5CCD
:10CFB0001F2B86BF064903F01F034FF0A04101223B
:10CFC00002FA03F3C1F80C35704700BF106E0F0072
:10CFD00000030050074B1B5C1F2B86BF064903F064
:10CFE0001F034FF0A041012202FA03F3C1F80835F4
:10CFF000704700BF106E0F000003005008B50020FE
:10D00000FFF7E8FF0120FFF7E5FF0220FFF7E2FF4F
:10D01000BDE808400320FFF7DDBFC20710B5044696
:10D020000CD54FF0A0430322C3F83427C3F83827A8
:10D03000C3F83C27C3F84027FFF7E0FFA3070AD552
:10D040004FF0A0430C22C3F82C27C3F83027C3F8B5
:10D050006027C3F8642710BD4FF08053D3F8300128
:10D06000A0F1080358425841704700004FF0805328
:10D07000D3F83021082A06D1D3F83431052B02D851
:10D08000024AD05C70470020704700BF1A6E0F0044
:10D09000024AD2F80034002BFBD0704700E0014078
:10D0A00010B5FFF7D9FF40B14FF080430022C3F81D
:10D0B0000C21C3F81021C3F83825FFF7CDFF002855
:10D0C00046D04FF08052654BD2F80414C3F82015B7
:10D0D000D2F80814C3F82415D2F80C14C3F8281594
:10D0E000D2F81014C3F82C15D2F81414C3F8301564
:10D0F000D2F81814C3F83415D2F81C14C3F840152C
:10D10000D2F82014C3F84415D2F82414C3F84815F3
:10D11000D2F82814C3F84C15D2F82C14C3F85015C3
:10D12000D2F83014C3F85415D2F83414C3F860158B
:10D13000D2F83814C3F86415D2F83C14C3F8681553
:10D14000D2F84014C3F86C15D2F84424C3F8702503
:10D15000FFF78CFF18B1424B424AC3F88C26FFF709
:10D1600085FF18B1404BFB22C3F81825FFF77EFF5F
:10D1700070B14FF080414FF08053D1F8E42ED3F8D6
:10D18000583222F00F0203F00F031343C1F8E43EBC
:10D19000FFF76CFF20B1354B4FF40072C3F8402607
:10D1A000FFF75AFF48B14FF08043D3F80024D2076D
:10D1B00044BF6FF00102C3F800242D4AD2F8883032
:10D1C00043F47003C2F88830BFF34F8FBFF36F8F03
:10D1D0004FF08053D3F83021082A0ED1D3F83431E0
:10D1E000052B02D8234AD35C3BB14FF01023D3F870
:10D1F00008224FF08043C3F858254FF01023D3F88E
:10D200000022002A03DBD3F80432002B22DA1A4969
:10D2100001234FF01020C1F804351224FFF738FF26
:10D22000C0F80042FFF734FFC0F80442FFF730FFB8
:10D230000023C1F80435FFF72BFFBFF34F8F0C49D4
:10D240000E4BCA6802F4E0621343CB60BFF34F8F0A
:10D2500000BFFDE70A4B0B4A1A6010BD00C000403A
:10D26000005000404881030000F000400090024060
:10D2700000ED00E0146E0F0000E001400400FA052C
:10D28000140000200090D00338B520220446083056
:10D290000D4608F005FF2022A91804F1280008F027
:10D2A000FFFE002038BD00002DE9F743DFF86C8059
:10D2B0009946184B036004460E4640460121174626
:10D2C00001F0D8FE0546BFF35F8FF8B900F0E6F82D
:10D2D0000A9ACDF800903B4606F10801204607F077
:10D2E0000FFD044600F0E8F8BFF35F8FC8F8005068
:10D2F00044B1094948F2165248F242538C4214BFD5
:10D3000014461C46204603B0BDE8F08348F204549E
:10D31000F8E700BFDD55AABB8408F000F86B0020D9
:10D320000E4B984214D00AD8B8B10D4948F21652A3
:10D3300048F20153884214BF104618467047094B03
:10D34000984208D0084948F2165248F20353F1E7D0
:10D3500048F20350704748F2025070470102F00053
:10D360000002F0000202F0000F02F00008B50830E1
:10D3700007F030FDBDE80840FFF7D2BF13681F2B50
:10D380002DE9F34106460F46144620D9DFF84C80BC
:10D390000121404601F06EFE0546BFF35F8FC8B91C
:10D3A00000F07CF8394606F1080007F07FFD019097
:10D3B00000F082F8BFF35F8F0198C8F80050FFF7C4
:10D3C000AFFF08B92023236002B0BDE8F08148F226
:10D3D0001450F9E748F20450F6E700BFF86B00205C
:10D3E0002DE9F04105460E4619480121144601F089
:10D3F00041FEBFF35F8F38BB00F050F8DFF8548078
:10D400000835B4F5805F274628BF4FF48057314672
:10D410003A46404608F044FE3A464146284607F060
:10D42000F3FCE41B3E4468B9002CEAD100F044F858
:10D43000BFF35F8F064B00221A602046BDE8F04123
:10D44000FFF76EBF0446F1E748F20450BDE8F081F3
:10D45000F86B0020F85B0020024B0020C3F80005A9
:10D46000704700BF00A0025038B50A4B00251D6070
:10D47000BFF35F8F084C0123C4F8003507F046FD69
:10D48000C4F8005520B1052848F2035018BF032006
:10D4900038BD00BFF86B002000A00250044B0122F1
:10D4A000C3F80025034B4FF480625A60704700BFF9
:10D4B00000A0025000E100E0064B0022C3F8002566
:10D4C000054B4FF48062C3F88420BFF34F8FBFF346
:10D4D0006F8F704700A0025000E100E04B1C30B598
:10D4E000DB00044612F003009BB20DD1074D2A6009
:10D4F0001A44074B1A60074B1870074B1870074BFC
:10D500001C80074B198030BD0720FCE7046C00200D
:10D51000006C0020FC6B00200C6C0020086C0020CC
:10D520000A6C00202DE9F047DFF8B480B8F800302D
:10D530008B4206460D46174645D3002001F07AFD82
:10D54000234B244A2448197800881478E3B2844293
:10D5500038BF0133C9B234BFDBB2002399422CD0AB
:10D5600014781178CBB2884286BF0133DBB2002336
:10D570001370002001F060FD4FF6FF739C4224D031
:10D58000DFF86090D9F800304FEAC40A43F83470ED
:10D5900003EBC402A6B19DB1104BB8F800001B68A4
:10D5A0002A4604FB0030314608F07AFDD9F80030F5
:10D5B000534400209D80BDE8F0874FF6FF74D8E704
:10D5C00000209080F7E70920F5E70420F3E700BF8B
:10D5D0000C6C0020FC6B00200A6C0020006C00200A
:10D5E000086C0020046C002070B5104C104D22789F
:10D5F0002B789A4200D170BD0E480F4A23781268EA
:10D6000006880E4802EBC301006852F8332089886F
:10D6100003FB060090470A4922780988D3B2914259
:10D6200086BF0133DBB200232370E0E70C6C0020DF
:10D63000FC6B0020086C0020046C0020006C0020B3
:10D640000A6C002043681B6818470000024B5B68A7
:10D6500003B11847704700BF106C0020020600F0AD
:10D660000F034CBF02480348DB001844704700BF5B
:10D670001C6C0020646C002008B5FFF7EFFF016010
:10D6800009B14B681968416008BD00000378052B9B
:10D690000BD1074AD2F88434D2F88024D2B222B90E
:10D6A000044ADBB2052B08BF1046034B1B68184722
:10D6B00000700240646E0F00106C0020012805D03D
:10D6C000022805D030B90448FFF7E0BF0348FBE764
:10D6D0000348F9E7704700BF606E0F005C6E0F00F3
:10D6E000586E0F00FFF7D2BF0148FFF7CFBF00BF52
:10D6F000686E0F00024B0146D3E90002104700BFDD
:10D70000646C002038B5831EDBB2062B98BF194A23
:10D71000194D98BFD25C2B78A3F10203DBB288BF0E
:10D720000022062B9ABF1349CB5C00239342044688
:10D7300003D0BAB1114802F065F92A786FF4827308
:10D74000234103F00103022A83F001030DD0A2F16B
:10D7500008014A424A419A4202D043B103F01CF800
:10D760002C7038BD02F078F9E7E70122F3E703F007
:10D7700009F8F5E74D6E0F00B56C00201800002089
:10D780002DE9F04F87B000260546884691461F4692
:10D7900002966B6800225C682946012302A8A04714
:10D7A000044638B98DF8060004908246564503D8E1
:10D7B000052028E00136ECE76B680DF10602D3F88E
:10D7C00004B02946012304A8D8476B680DF107026D
:10D7D000D3F804B02946012304A8D8479DF80730A0
:10D7E00043459DF8063013D14C450FD1109A136074
:10D7F0003B7087F801806A68023B54682946BA1C6E
:10D8000004A8A047002007B0BDE8F08F0134E4B2BF
:10D810006A68023BD2F804B02946002204A8D8471F
:10D820009DF806309A44C1E72DE9F74305462B4899
:10D8300002F0C8FF044600284CD1294B1870294B30
:10D840001860294B014618604822284808F050FC0F
:10D8500027484822214608F04BFC264B95B9264A1A
:10D860001D72C3E90025002002F00AF918B18528CD
:10D8700001D003F0DFFC214F002697F8089007F154
:10D88000090814E095E8070083E807000028EAD1BA
:10D89000194A1A60E7E7A37823443946985CFFF7F2
:10D8A000EBFE01356378EAB29342F4D80136F4B264
:10D8B000A14504D904EB440444440025F2E70B23BA
:10D8C0000E488DF8043001A9FFF7BCFE044608B1EC
:10D8D00002F04EFE204603B0BDE8F083E5D60E0010
:10D8E000B56C0020AC6C0020B06C00201C6C0020DB
:10D8F000646C0020106C002029DC0E009C6E0F0070
:10D9000010B502F0FBFE10B90823184610BD02F056
:10D91000FDFE04460028F7D1044802F0CCF8034687
:10D920000028F2D003F086FC2346EEE7546E0F0089
:10D9300002F028BE03F048BA4FF08043D3F83824F1
:10D94000920702D50348FFF7A1BED3F83824D107C8
:10D95000F4D470476D6E0F0007B5822301A88DF8CF
:10D960000430FFF793FE03B05DF804FB2DE9F743A5
:10D9700000F1090190F80890054600270E46FBB219
:10D980004B452AD291F801800024E3B298450AD988
:10D990008B780A190134D05CFFF760FE0368002B16
:10D9A000F3D0112028E001370331E8E7A2782344BF
:10D9B0002946985CFFF760FE01376278FBB29A4215
:10D9C000F4D808F101082B7A5FFA88F4A34216D93B
:10D9D00004EB440434440027EFE74FF00008F2E77B
:10D9E00013681A68002AFBD11D6001A90B23284681
:10D9F0008DF80430FFF726FE03B0BDE8F083014B3D
:10DA0000EFE700BFAC6C0020024B1878003818BF5D
:10DA100001207047B46C0020030710B5044604D4FD
:10DA200002F0E8FF204603F095FA2046BDE81040DA
:10DA300003F03CBA03F008BA014B1868704700BF06
:10DA4000AC6C0020F0B50A4B1B687BB11D7A00223C
:10DA50009E1DD4B2A54201D81B68F5E7013202EB46
:10DA60004207F75D8742F4D101B10C701846F0BD52
:10DA7000AC6C00201146FFF7E5BD08B500F00F03C0
:10DA8000082B07D8FFF7EAFD006818B1BDE8084089
:10DA9000FFF7D8BD102008BD38B5054B05461C68FA
:10DAA00004B938BD29462046FFF7CCFD2368F6E7C8
:10DAB000AC6C002038B5074B05461C680CB9062035
:10DAC00038BD29462046FFF7BDFD0628F8D123685A
:10DAD000F3E700BFAC6C002013B50446019102F0DF
:10DAE000B7FE50B1064B1B78022B06D10199204698
:10DAF00002B0BDE8104002F0BBBE082002B010BD6D
:10DB0000B56C002013B50446019102F0A1FE50B19E
:10DB1000064B1B78022B06D10199204602B0BDE8C6
:10DB2000104002F019BF082002B010BDB56C0020F3
:10DB3000F8B543689B6804460D46164613B92EB1E6
:10DB4000072002E098470628F9D0F8BD237AAB42B7
:10DB500013D9093405EB45052C446778F3B29F428D
:10DB600001D80020F1E762789A4208D9A219A37877
:10DB7000D05CFFF751FF0136F0E77378FFDE00233A
:10DB80001B78FBE770B54368DB6804460D4603B1BC
:10DB90009847237AAB4213D905EB450509342C4449
:10DBA00000256678EBB29E4200D870BD62789A423A
:10DBB00009D96219A378D05C03F046F90135F1E781
:10DBC00000235B78FFDE00231B78FBE743681B69BB
:10DBD00003B118471846704770B5084B1C6804B964
:10DBE00070BD267A0025E9B28E4201D82368F5E798
:10DBF00000222046FFF79CFF0135F4E7AC6C0020C3
:10DC000070B5084B1C6804B970BD267A0025E9B2CE
:10DC10008E4201D82368F5E72046FFF7B3FF0135B0
:10DC2000F5E700BFAC6C002038B503780F2B044635
:10DC30000ED983F08002052A00D938BD813B042B20
:10DC400067D8DFE813F02B00480072007D00DF008A
:10DC50000F2BF2D801A252F823F000BF63DD0E00B3
:10DC600093DD0E00F3DD0E00B7DD0E00D5DD0E00F6
:10DC700005DE0E0017DE0E003BDC0E0041DE0E005E
:10DC800045DE0E0049DE0E003BDC0E003BDC0E00E4
:10DC90003BDC0E003BDC0E000FDE0E006B48FFF796
:10DCA00029FD6A48FFF7F8FE0D20FFF7CFFCFFF7CC
:10DCB000A7FF00F0D2FE664B1B6853B9654B187A7C
:10DCC00000F0010002F0F6FC0120BDE83840FFF74B
:10DCD00019BD0120F4E7FFF793FF03F053F800208C
:10DCE000FFF710FD5C48FFF7D7FE5B48FFF702FD2A
:10DCF0000E20FFF7ABFC594B1B78023BDBB2062B27
:10DD00009BD8574AD35C002B97D0BDE8384001F030
:10DD1000A3BE524B1B78062B05D003F0FD03052B49
:10DD20008BD10220D1E70820CFE74C4B1B78032B87
:10DD300083D103F063F800283FF47FAF0420C4E7E9
:10DD4000464B1B78032B05D103F058F810B1042083
:10DD5000FFF7D8FC02F0E4FC00283FF46EAF062089
:10DD6000B3E73E4B1B78032B01D0082B02D13D4873
:10DD7000FFF75AFF0020FFF769FC354B1D68002DA7
:10DD80003FF45BAF28462146FFF75CFC2B685D68DB
:10DD9000F5E7FFF735FF00F057FE0220FFF7B2FC72
:10DDA0000120FFF753FC2046FFF7A4FC2046BDE806
:10DDB0003840FFF771BE294B1B78082B06D1022093
:10DDC000FFF7A0FC02F0F2FC0320EAE70520FFF7D2
:10DDD00099FCF9E70320FFF739FC2348FFF78AFC99
:10DDE0002148FFF759FE1D4B1B78062B99D10720C0
:10DDF0006BE70320FFF786FC0220FFF727FC204695
:10DE0000FFF74AFE2046BDE83840FFF773BC0F20FD
:10DE1000FFF71CFCCAE78078FFF720FC2146436827
:10DE20000068984700283FF408AFA07802073FF445
:10DE300004AF03073FF501AFBDE8384002F0CCBDA9
:10DE40000820E5E70920E3E70A20E1E76C6E0F0010
:10DE5000B06C0020106C00206B6E0F00B56C0020C1
:10DE60004D6E0F006A6E0F00696E0F00C36903B13B
:10DE70001847704703680022C3E91E22C3E9202225
:10DE80001A845A62DA6203F134025A67704710B595
:10DE9000044658B90868037B202B09D100F10E0114
:10DEA0000722183008F0FCF8204610BD0320FCE7DC
:10DEB0000620FAE74360CA699A420DD38A69026074
:10DEC000C8691A448A610A6FC01A1A44C8610038C6
:10DED0000A6718BF0120704701F1280202608B67B2
:10DEE00000207047F0B5054600680E7A002800F063
:10DEF0008780A0F213307C2800F219837C2800F27E
:10DF00001683DFE810F0820096009800A400B000AD
:10DF1000BC00C800D4001403140314031403140336
:10DF20001403E900F500140314031403140312018D
:10DF30001E012C011403140314033F014B0179014A
:10DF4000140314031403140361016D017901140314
:10DF5000140314031403140314038501140314039A
:10DF6000140314039901A501B101BD01C9011403F2
:10DF70001403D501E101ED01F901050214031403B5
:10DF8000150221022D023902140314034502510225
:10DF90005D026902750214031403140314031403CD
:10DFA00014031403140314031403140314031403B9
:10DFB00014031403140314031403140392029E02A3
:10DFC000140314031403B7021403140314031403F7
:10DFD000D4021403140314031403D402140314030B
:10DFE0001403140314031403E002EC0214031403D7
:10DFF000140314030A0314031403140314030A037D
:10E0000008202871002B00F096820AB12879107040
:10E010000B20012B287140F2918201240AB128794A
:10E0200010550134087D28719C4205D340F2153308
:10E0300049E00024F2E700240AB1287910550134A0
:10E0400002209C42287103D340F216333BE00024A7
:10E050000AB128791055013402209C42287103D35B
:10E0600040F217332FE000240AB12879105501340B
:10E0700002209C42287103D34FF4467323E000240E
:10E080000AB1287910550134487E28719C4203D387
:10E0900040F2193317E000240AB1287910550134F1
:10E0A00000209C42287103D340F21A330BE0002475
:10E0B0000AB128791055013400209B4F86423870F0
:10E0C00003D840F29A33012033E20920A342287199
:10E0D00003D840F22133F6E700240AB1287910551D
:10E0E000013404209C42287103D340F22233EAE732
:10E0F00000240AB1287910558B480F7A0078DFF890
:10E100002CC2874204F1010440F21B8201F109078D
:10E1100000EB400007EB000E9C42385CCCF800E0BE
:10E12000287103D340F22733CDE700240AB12879C0
:10E130001055013400209C42287103D34FF44A73D8
:10E14000C1E700240AB128791055784800680134E5
:10E15000407828719C4203D340F22933B3E700246E
:10E160000AB12879105571480F7D00680078874200
:10E1700004F101041ED102209C42287103D340F215
:10E180002D33A0E700240AB128791055013402206C
:10E190009C42287103D340F22E3394E700240AB145
:10E1A000287910550134487E28719C4225D340F2CD
:10E1B0002F3388E78F7D874223D10A209C42287124
:10E1C00003D34FF44D737EE700240AB1287910552C
:10E1D000013400209C42287103D340F2353372E7AA
:10E1E00000240AB128791055013400209C4228717E
:10E1F00003D340F2363366E700240AB1287910557C
:10E2000001340020A342287103D840F23D335AE77D
:10E2100000240AB12879105544480F7D0068007821
:10E22000874204F1010440F0E88005209C422871F7
:10E2300003D340F2423346E700240AB1287910554F
:10E24000013424209C42287103D340F243333AE73F
:10E2500000240AB128791055013400209C4228710D
:10E2600003D34FF451732EE700240AB128791055D7
:10E27000013410209C42287103D340F2453322E739
:10E2800000240AB128791055013401209C422871DC
:10E2900003D340F246334CE100240AB128791055EB
:10E2A000013405209C42287103D340F249330AE728
:10E2B00000240AB128791055013424209C42287189
:10E2C00003D340F24A33FEE600240AB12879105500
:10E2D000013401209C42287103D340F24B3328E1E2
:10E2E00000240AB128791055013403209C4228717A
:10E2F00003D34FF45373E6E600240AB1287910558E
:10E300000134887D28719C4203D340F24D33DAE614
:10E3100000240AB128791055013404209C42287148
:10E3200007D34FF45473CEE6B76C0020BC6C0020CA
:10E3300000240AB128791055013424209C42287108
:10E3400003D340F25133BEE600240AB128791055B8
:10E35000013402209C42287103D340F25233B2E6CA
:10E3600000240AB128791055013402209C422871FA
:10E3700003D340F25333A6E600240AB1287910559E
:10E38000013405209C42287103D340F256339AE6AB
:10E3900000240AB128791055013424209C422871A8
:10E3A00003D340F257338EE600240AB12879105582
:10E3B000013406209C42287103D34FF4567382E641
:10E3C00000240AB1287910550134087D28719C4237
:10E3D00003D340F2593376E600240AB12879105568
:10E3E0000134887D28719C4203D340F25A336AE697
:10E3F00000240AB12879105501345548006847783F
:10E40000544807700020544F3870524F3F7887426D
:10E4100004D8524800780130C0B24EE60720A3422B
:10E42000287103D840F26E334DE600240AB12879F2
:10E430001055013405209C42287103D340F26F33FC
:10E4400041E600240AB1287910554148424F00683E
:10E450003F7890F801C0BC4504F1010476D990F8EA
:10E4600002C038449C4210F80C00287103D340F2DB
:10E47000733328E600240AB12879105534480F7DFB
:10E4800000680078874204F1010406D103209C4211
:10E4900028710DD34FF45E7315E68F7D87420BD143
:10E4A00002209C42287103D340F27D330BE6002406
:10E4B0000AB12879105501344020A342287103D8AD
:10E4C0004FF46173FFE500240AB128791055013437
:10E4D00000209C42287103D340F28533F3E50024E9
:10E4E0000AB1287910551A480F7D006800788742D4
:10E4F00004F1010407D1086A9C42007828710DD309
:10E5000040F28A33DFE58F7D87420BD100209C42A9
:10E51000287103D340F28F33D5E500240AB128795E
:10E52000105501340C4800780130C0B26BE700236D
:10E5300018462B60F0BD40F21333C4E54FF4457329
:10E54000C1E50023CCF800301B78FFDE0023FBE799
:10E55000BC6C0020B66C0020B86C0020B76C0020AA
:10E56000037A012B08D9427B012A00F10C0306D95A
:10E57000827B13445878704700235B78FFDE0023CA
:10E580001B78FBE72DE9F0470B7888B005460E466F
:10E590000E2B1AD8DFE813F060003B01600060002A
:10E5A00019000F00A70019001900380119006000B8
:10E5B0006000600060004A78D1094FEA521335D0FC
:10E5C00013F0030303D0012B21D006241BE002F03B
:10E5D0001F02012AF9D1B478062CF6D105A80393BD
:10E5E00000F0A8FC03AB0093F278317903460746AC
:10E5F0002846FFF7C5F8052805D0039A3946701C50
:10E6000000F046FA0446204608B0BDE8F087B3782B
:10E61000212BDAD1B6F80720072AD6D10168701C61
:10E62000183108B0BDE8F04700F032BA012BCCD168
:10E63000B3780768202B11D0222BC6D1B6F807304B
:10E64000002BC2D13A8CB6F803303B8402F00102B1
:10E6500003F00104A24222D10024D4E7B6F8072037
:10E66000072AB2D13B73B6F80730DBB27B730020C8
:10E670000E37CDE90573079000F0DCFC05A90020FA
:10E68000FFF72AFA044630B9674B03A9CDE90335F1
:10E6900000F0ECF90446002000F0CEFCB3E7C4F132
:10E6A0000301C9B2FFF7E2FB002CD5D12B7A012B75
:10E6B00040F2B3806B7B05F10C02002B00F0AF80C1
:10E6C000AB7BD05C02F0BAFA2846FFF749FF02F0B4
:10E6D000B5FA07F13403C7E91E44C7E920447C6258
:10E6E000FC627B678FE7037A002B00F09A80837AC5
:10E6F00000F10901002B00F09280C27AB3788A5CA5
:10E700009A42A9D01B06F77809D527B1032F14BF69
:10E710000324002477E70121FFF7A8FB9CE707F01B
:10E72000FD03012B98D0002F75D10668FFF718FF65
:10E730003E4B059306F10C030693B46A8146C4B9B7
:10E74000F36FB467C6E91F43F36A63B1D6E90B01FF
:10E7500006F1240383E80300F46205A94846FFF7A5
:10E76000D1F9044600E0746200212846FFF77EFBE1
:10E7700049E7D6F884A0706A544528BF544606F18C
:10E7800034082246414607F08BFCF36F2344C6E968
:10E790001F73AAEB0403B367F36A444474670BB3B3
:10E7A00006F1240406F12C0898E8030084E803002D
:10E7B000B36F706AF7621BB3B26A716F9A4214D872
:10E7C00007F06EFCB36AB26FC6F88030D21AB26737
:10E7D000726F1A44726700212846FFF747FBF36AFD
:10E7E000002BE1D173620024BEE71A4607F058FC03
:10E7F000B26FB36AF2679B1AB362736A13447362AF
:10E80000736A002BA9D1EEE70321FFF72FFB2846FF
:10E81000FFF730FB20E70324F5E66378FFDE1B7883
:10E82000FCE75B78FAE700BF8FDE0E00B5DE0E0076
:10E830001FB503681B8CDC0714D5037A012B13D991
:10E84000437B00F10C0493B1837BE05C9306CDE93C
:10E8500001120CBF0123002301A90393FFF73CF928
:10E8600004B010BD0820FBE700235B78FFDE1B78B7
:10E87000FCE700002DE9F3410468238CDB078046A8
:10E880000F46164646D5002000F0D4FB656A002DE1
:10E8900038D1A16FB14213D3616F3246384607F0C9
:10E8A000FFFBA36FC4F880609B1BA367636F3344B7
:10E8B0006367002000F0C0FB284602B0BDE8F0818D
:10E8C000C4E909764046FFF74BFE134B009304F171
:10E8D0000C030646019369B10A463846616F07F09A
:10E8E000DFFBA36FA26AD21AA262626AC4E91E5356
:10E8F0001A44626269463046FFF704F9051E08BFF4
:10E900009225D6E7E36A1BB9C4E90B769225D0E7D6
:10E910001125CEE70825CFE7B5DE0E0000207047B1
:10E920002DE9F04F2DED028B85B04B6801928246A8
:10E930000C4633B90B681B681E6816B98D68002D2C
:10E9400067D002F045F8019BE7689F4228BF1F4649
:10E9500004F110034FF0000908EE103A06464D4648
:10E960004FF001084FB3A3686168BB429B4628BFC4
:10E97000BB4651B35A46701907F092FB00236360FF
:10E98000A268E368A2EB0B02A3EB0B03A260E360B7
:10E99000A7EB0B075D4432BBB9F1000F03D022682F
:10E9A00012681268226003B323680BBB636025B151
:10E9B000019BAB4288BF4FF000084046CAE90065A2
:10E9C00005B0BDEC028BBDE8F08F002BD8D02168DC
:10E9D0004B6818EE100AD3F8049072195B46C847CA
:10E9E0004FF00109CCE7002BBCD14FF00008B9E78C
:10E9F0000023029321684B680022D3F804B002A8D8
:10EA00000123D84708B92061ACE7A3680133A360AC
:10EA1000F0E7A846D1E70000084B1A7882420CD0F4
:10EA2000052818BF064A187018BF137805481CBF80
:10EA300023F002031370FFF7F7B87047CC6C002087
:10EA4000E86C0020AC6E0F0008B50020FEF7E4FF74
:10EA5000BDE808408020FEF7DFBF08B50020FEF7C4
:10EA6000E9FFBDE808408020FEF7E4BF38B5054661
:10EA70000C4602F03FF8A84203BFD4E90001034B63
:10EA8000C3E90001102008BF002038BDEC6C002055
:10EA90007FB5C38893421E4628BF164693420D4653
:10EAA000144620D9802001F0CDFEB4FBF0F303FB27
:10EAB0001044B4FA84F4640900200394CDE90156AB
:10EAC00000F0B8FA01A98020FFF706F8044620B943
:10EAD00006498020FFF7CAFF0446002000F0ACFA88
:10EAE000204604B070BD0024E6E700BFE06E0F00D2
:10EAF0002DE9F04F0B780E2B89B00D4613D8A3B13A
:10EB0000013B0D2B11D8DFE813F012001A0016009C
:10EB100010002A00F40110001000100010001A006C
:10EB2000DE01E201F201852B13D00624DBE1032094
:10EB3000FFF772FFF9E7A84800F0F5FA08B90024DA
:10EB4000D1E1A64B0122DA65BFF36F8FBFF34F8F80
:10EB5000F5E7A34B1B78032BE7D10420E8E7052357
:10EB6000A04D8DF814300DF1150001F053FF002376
:10EB70002B609DF8153003F01F06032E00F25C8118
:10EB8000DFE816F00400F50051012E0013F0600FCD
:10EB9000C3F3411824D1DB099DF8161000F09F80C3
:10EBA000062921D0082900F08F80C9B98E4C022295
:10EBB000204607F09DFA23788B4943F0010222702A
:10EBC0008A4A1278920744BF43F00303237002225B
:10EBD0000DF11500FFF75CFF0446062C40F0348170
:10EBE00005A8FEF767FF1CE19DF81830022B0BD03B
:10EBF000032B59D0012BF3D1BDF81B30002B00F0B3
:10EC00005F817B491222E3E7BDF81B70002F00F003
:10EC10005781092F28BF0927FEF70EFF4FF009097A
:10EC2000044654BB704C73493A46204607F038FA04
:10EC30002671A4F80290FEF7E7FE18B1E37943F0DD
:10EC40002003E371FEF7F8FE6B4BC3E900049F60FD
:10EC5000BDF81B20DA60002000F0ECF96749802045
:10EC6000FEF750FF044620B965498020FFF7FEFEFD
:10EC70000446002000F0E0F9AFE7CDF80C804FF03B
:10EC8000000A63680022D3F804B02146012303A8D8
:10EC9000D84730B9237A3344DEB22368D1441C68A4
:10ECA000BFE70AF1010AECE7BDF81B30002B00F0CA
:10ECB0000781BDF819109DF8170000F08BF9014687
:10ECC00000288DD0027883E7454A1278052A02D0C1
:10ECD000042A85D13346444901220B7078E7032981
:10ECE00011D009292DD001297FF47AAFBDF8173052
:10ECF000012B7FF475AFFEF787FE60B13B4A1378B6
:10ED000023F002030FE0BDF81730012B7FF468AF4A
:10ED1000FEF77AFE18B90F2401F0E2FEE3E0334A71
:10ED2000137843F0020313702B68002B00F0C880A7
:10ED300001F0E0FE044600287FF401AF01F090FEF0
:10ED4000D1E0274B1B78043B012B01D90824E3E7D2
:10ED50009DF817302BB9FEF753FF0420FFF75CFE38
:10ED6000E2E7012B56D1FEF737FF0520F6E79DF8C5
:10ED7000190003A9FEF766FE064608B91024CBE782
:10ED80009DF80C1005AAFEF775FE062804465BD117
:10ED90009DF815209DF80C1012F0600FBCD1104B9F
:10EDA000D20918789DF816302CD07BB10A2BB3D13C
:10EDB0000528CBD130460192FEF708FF0A49019A97
:10EDC00008700DF11500FFF763FE2AE00528BDD19C
:10EDD00005490B800222F4E7F46C00200070024029
:10EDE000CC6C0020EC6C0020F86C0020E86C00205B
:10EDF000CC6E0F00AD6E0F00D06C0020E86E0F00DF
:10EE0000E06E0F000B2B87D105289FD1BDF817307E
:10EE1000FF2B01D907247FE79DF817203046FEF726
:10EE200087FE044610E09DF81900030706D19DF8FF
:10EE3000153013F0600F0BD006246DE705A9FEF71F
:10EE40001CFE06280446F2D0002C3FF46DAF63E7A9
:10EE50009DF81620344B9DF819401B78012A1DD0CF
:10EE6000032A0CD0002AE7D1052B02D027077FF414
:10EE70006DAF204601F0BCFD2C490880AAE72607AB
:10EE8000DAD4BDF81720002AD6D12007D4D0052B1C
:10EE90007FF45CAF204601F09FFD45E72107CBD40E
:10EEA000BDF81720002AC7D12207C5D0052B7FF453
:10EEB0004DAF204601F09EFD204602F04BF833E7AF
:10EEC00001F004FE3BE60020FFF7A6FD37E64FF019
:10EED0008043D3F8384414F0010401D00220F3E752
:10EEE0000120FFF799FD204609B0BDE8F08F012011
:10EEF000EAE7C87803283FF418AE0D4E33688BB1AB
:10EF00000022716832609847044600287FF404AFFD
:10EF1000336823B1AB78002B7FF411AE0EE701F01C
:10EF2000D5FDE0E70E24F7E6CC6C0020F86C00205D
:10EF3000EC6C002008B1402303600148704700BF1B
:10EF4000F86C002070B54FF0805286B0D2F8A8302F
:10EF5000D2F8A42000926FEA83436FEA93430B4AEE
:10EF60000B4E9BB20D2102A807F0CAF802AD002497
:10EF700002A807F001F9844201D306B070BD15F86C
:10EF8000013B06F8013B0134F2E700BFF06E0F00D1
:10EF9000386D002010B50E4B53F8204023780BB984
:10EFA000A01C10BD0020FFF7C5FF013C00235A1C28
:10EFB000A15C39B9DBB201335B00DBB243F44073CF
:10EFC0000380EEE7D3B220F813101346EFE700BF3B
:10EFD0004C6F0F00034608B9FFF7DCBF012807D0CC
:10EFE000022805D0032803D0042801D0052809D120
:10EFF000054A02EB4303587820B1044B53F8203004
:10F00000002BE9D100207047646F0F004C6F0F0098
:10F0100072B6024A1368013313607047486D0020CE
:10F02000034A1368013B136003B962B6704700BF1F
:10F03000486D0020FFF7ECBFFFF7F2BF30B53AB1E3
:10F040001368DB430A4D0144814204D1D84330BDEB
:10F050004FF0FF33F6E710F8012B5340082213F06E
:10F06000010418BF2C46013A84EA5303F7D1EBE7B9
:10F070002083B8ED10B5034653E8000F0A4643E875
:10F08000002494F0000FF7D110BD10B5034653E8EB
:10F09000000F40EA010243E8002494F0000FF6D18B
:10F0A00010BD10B5034653E8002F42EA010043E8C3
:10F0B000000494F0000FF6D110BD10B5034653E8DC
:10F0C000000F00EA010243E8002494F0000FF6D19B
:10F0D00010BD10B5034653E8002F02EA010043E8D3
:10F0E000000494F0000FF6D110BD10B5034653E8AC
:10F0F000002F02EB010043E8000494F0000FF6D16A
:10F1000010BD10B5034653E8002FA2EB010043E801
:10F11000000494F0000FF6D110BD0121FFF7B5BF38
:10F120000121FFF7BEBF0021FFF7C7BF0021FFF796
:10F13000D0BF10B590B1D0E9012301689B1ADBB2B2
:10F140000A60013BDBB2FF2B026802D10020107184
:10F1500010BD11684C1C14600B70F2E70E20F7E72D
:10F1600038B504460020FFF765FF22686168136820
:10F170008B4215D9591E116013F8013C228AE568AB
:10F1800002FB03552268A36811685B1A1179DBB290
:10F19000994200D213710020FFF74EFF284638BD78
:10F1A0000025F8E738B5054600200C46FFF742FF7A
:10F1B0002A681368591C1160EA68A41A2A8AB4FBE9
:10F1C000F2F41C70BDE838400020FFF735BF10B5E1
:10F1D000826804462AB143690168006998470023A0
:10F1E000A36010BD0EB403B5039921B104AB01AA0D
:10F1F000019300F077F802B05DF804EB03B07047BC
:10F200000A2938B504460D4602D10D21FFF7F8FF53
:10F21000A3682268591CA160D554D4E901329A42EE
:10F2200004D32046BDE83840FFF7D1BF38BD000009
:10F230002DE9F84F9846DDE90A43154682460F4608
:10F240000A464FF00109AA420FD2C14538BFC14654
:10F2500013F0010B01D16CB900240126B8F1010FA4
:10F260001BD908F1FF386E43F8E709F10109B2FB39
:10F27000F5F2E8E79B070ED5B8F1000F0CBF30267A
:10F280002026A145E9D2013C31465046FFF7B8FFA0
:10F29000002CF6D1E0E72026F3E7B7FBF6F39D421A
:10F2A000E1D9DFF83C80B7FBF6F3504618F80310BD
:10F2B00006FB1377FFF7A4FF3346AB42B6FBF5F628
:10F2C000F1D2BBF1000F02D00CB1A14501D3BDE8D2
:10F2D000F88F20215046013CFFF792FFF4E700BF72
:10F2E000796F0F002DE9F74F05461746884600292C
:10F2F00000F03E8118F8011B49B92B7B002B00F070
:10F300003781284603B0BDE8F04FFFF760BF2529DD
:10F3100040F0B780002698F800302D2B424608F1C7
:10F32000010823D0302B24D02B2B25D000242A2BCE
:10F3300002F1010123D13B681A1D3A601B680A469D
:10F340001C4413782E2B26D101324FF0000A1046B0
:10F3500010F8011BA1F1300CBCF1090F1DD80A23D4
:10F3600003FB0A11A1F1300A0246F0E746F001065C
:10F37000D1E746F00206CEE746F00406CBE711F8E7
:10F38000013CA3F130000928DBD80A2202FB043437
:10F39000303C0A46CBE74FF0000A12F8011B01F09F
:10F3A000FB0068289046F8D0782909D86F290CD836
:10F3B000632962D022D8252963D0582900F088809B
:10F3C00098F80030002B95D197E770390829F7D8C5
:10F3D00001A252F821F000BF4BF50E00C1F30E0060
:10F3E000C1F30E00E1F40E00C1F30E00BFF40E00F5
:10F3F000C1F30E00C1F30E00D1F40E00642901D058
:10F400006929DDD13A68111D3960D2F8009089EA86
:10F41000E972A2EBE9724FF0010B092A35DCD34502
:10F4200038BFD3462CB1B9F1000F01DB720700D50C
:10F43000013CB30702D5BAF1000F03D0F00701D4A5
:10F440004CBB0024B9F1000F2DDAC9F100092D21C0
:10F450002846FFF7D5FE06F00302022A04D1BAF1CE
:10F46000000F01D11CBB0024CDE9004653460A22FF
:10F4700049462846FFF7DCFEA2E73B681A1D3A60C2
:10F4800019782846FFF7BCFE9AE70A230BF1010B17
:10F49000B2FBF3F2C1E7A345D4D220212846013CB8
:10F4A000FFF7AEFECCE77107D5D52B21D0E7A345FA
:10F4B000DAD230212846013CFFF7A2FED2E73968B4
:10F4C000CDE900460A1D3A6053460A220968D0E792
:10F4D00039680A1D3A60CDE9004653461022F5E727
:10F4E0003B681A1D3A6016F00106D3F8009024D14B
:10F4F000B9F1000F03D0484606F03EFE0646B4427E
:10F500001DD809F1FF3919F8011F00293FF458AF40
:10F510002846FFF775FEF6E728460136FFF770FE2E
:10F5200019F806100029F7D1A642BFF449AF2021EF
:10F530002846013CFFF764FEF6E70026F0E72021AD
:10F540002846013CFFF75CFED9E73B681A1D3A608C
:10F55000302128461C68FFF753FE78212846FFF724
:10F560004FFE00220823CDE900322146102280E719
:10F5700003B0BDE8F08F00BF01600B68114618476B
:10F5800010B40468E468A4465DF8044B604710B406
:10F5900004682469A4465DF8044B604770B550B90F
:10F5A0000E4D0F4C0026641B1423B4FBF3F4B4423D
:10F5B00008D1002010E00368002BF1D0BDE87040B6
:10F5C000DB6918472B6813B901361435EFE7DB699F
:10F5D000284698470028F7D070BD00BFC000002023
:10F5E000D4000020014B436000207047986F0F004B
:10F5F0000846704700207047024B1868003818BF53
:10F60000012070474C6D002008B50248FFF78EFDC1
:10F61000002008BD4C6D002008B510461A4606F0C3
:10F620003FFD002008BD00002DE9F041804686B076
:10F6300011480F4616461D46FFF76FFD0446C8B930
:10F64000AA083146384600F079FA0B48FFF76EFDFC
:10F65000D8F8083053B101228DF800200C9A059299
:10F66000CDE90147CDE9036568469847204606B0D5
:10F67000BDE8F0811124F9E74C6D00202DE9F0433D
:10F68000814687B014480E4615469846FFF745FD5B
:10F690000446F0B90746BD4215D10F48FFF746FDB5
:10F6A000D9F808305BB102228DF800200022CDE9A4
:10F6B0000126CDE90325CDF81480684698472046F9
:10F6C00007B0BDE8F08306EB073000F009FA013718
:10F6D000E1E71124F3E700BF4C6D00202DE9F84F5E
:10F6E000B0F806A04579D2F800B09DF828900AFB42
:10F6F00005F5043D88460BEB0301A94203F1040420
:10F7000088BFA5EB030BB4FBFAF607460AFB1644C9
:10F71000C2F800B04EB9AAEB04055D4528BF5D46AE
:10F72000BBF1000F04D1BDE8F88F3F68013EF1E75F
:10F73000043408EB06003C442A46B9F1000F0DD012
:10F740002146ABEB050B06F0ABFCDA452E443F68D7
:10F7500055464FF0000428BF5D46E1E701462046CC
:10F76000EFE7FFF7E6BCF8B546790146721E05469D
:10F77000002393422D6803D30024A64202D8F8BD8B
:10F780000133F6E70F682846FFF70CFD01343946D0
:10F79000F3E72DE9F843CD1C068A0746FFF7E0FCA6
:10F7A000043E35440446B5FBF6F5F0B14FF48073E2
:10F7B000EDB28380C680013D076081464FF00008AE
:10F7C000A84512D23846FFF7CBFC064648B163790C
:10F7D0000133637108F10108C9F800000760814630
:10F7E000EEE72046FFF7BFFF34462046BDE8F8832A
:10F7F00001210430FFF779BC10B501210446043023
:10F80000FFF77FFCC0B220B92046BDE81040FFF7EB
:10F81000AABF10BD1FB503920022009203AAFFF7F2
:10F820005DFF05B05DF804FB1FB503920122009255
:10F8300003AAFFF753FF05B05DF804FB82680023BD
:10F84000936082681361826853618268D3608268C2
:10F85000536082681360704710B50D49A1F58C7232
:10F86000914201D800200FE08C1AE30F03EBE40370
:10F870005B1002EBC30452F83330834205D802D246
:10F8800004F10802ECE7606810BD2146E8E700BF1C
:10F8900080740F0008B5FFF7DFFF024B002808BF98
:10F8A000184608BD55730F00F0B578B371B36BB34C
:10F8B00000241C600A44DB274FF0DC0C4FF0DD0E07
:10F8C0001C688A4204F1010500EB040604D11D60A6
:10F8D000C02333700020F0BD0E78C02E05D0DB2E83
:10F8E0000CD01D600D78055506E01D6007551C689D
:10F8F000651C1D6000F804C00131E1E71D6006557C
:10F900001C68651C1D6000F804E0F5E70E20E2E7C6
:10F9100010B580B3D0E902239A422ED00378012B90
:10F920000FD0022B21D053B9C02928D0DB2902D116
:10F930000123037003E04368541C84609954112030
:10F9400006E0DC2905D0DD290AD0022303700B2054
:10F9500010BD511C43688160C02199540023E8E721
:10F96000511C81604368DB21F7E7C029E7D1002300
:10F9700003708360E3E70E20EAE70420E8E7184617
:10F98000E6E7000038B5074C051E04F1080318BF70
:10F990001C4623682BB11A6822605B68284698478A
:10F9A000F7E738BD586D002020B9054B01225A7089
:10F9B000FFF7E8BF012802D1014A9070F8E77047CD
:10F9C000506D002038B50C4C23789BB90B48636010
:10F9D000A3602361E36000F0E7F8054600F0F0F86B
:10F9E00001232370064BD3F800340BB10123A3701D
:10F9F000284638BD8525F5E7506D0020A9F90E0091
:10FA00000000014038B5134C6378054603F0FF0051
:10FA100073B115B16B68002098470020FFF70AFB0F
:10FA20006368013363600020BDE83840FFF704BB22
:10FA3000FFF700FB25B1A26813463BB92A60A56019
:10FA40006368002BECD100F0D1F8E9E79D42F7D0D4
:10FA50001B68F2E7506D002038B5084C0020FFF716
:10FA6000E9FA6368013B6360656815B900F0CAF89C
:10FA70006570BDE838400020FFF7DEBA506D002009
:10FA800010B5074C23784BB9064B002808BF184621
:10FA900000F008F908B90123237010BD8520FCE7A8
:10FAA000646D002086740F0008B500F02AF9BDE8E7
:10FAB000084000F02DB907B50190FFF7F5FF019858
:10FAC00000F012F900F016F9002003B05DF804FB15
:10FAD000024AD2F80034002BFBD0704700E001400E
:10FAE0000A4908B50223C1F80435BFF36F8FBFF38D
:10FAF0004F8FC1F80805FFF7EBFF0023C1F804356D
:10FB0000BFF36F8FBFF34F8F08BD00BF00E0014010
:10FB100010B5094C0123C4F80435BFF36F8FBFF350
:10FB20004F8F0160FFF7D4FF0023C4F80435BFF303
:10FB30006F8FBFF34F8F10BD00E0014070B50E4EC8
:10FB400001231546C6F80435BFF36F8FBFF34F8FFF
:10FB50000024AC4207D10023C6F80435BFF36F8FF1
:10FB6000BFF34F8F70BD51F8243040F82430FFF7B9
:10FB7000AFFF0134EDE700BF00E0014010B50346E0
:10FB800053E8000F00EA010243E8002494F0000F5C
:10FB9000F6D110BD00F18040002382B003600368FD
:10FBA0000193019B02B07047044A137923B90121E4
:10FBB000106091801846704785207047686D00205E
:10FBC000084B1A68D20704D4C02283F8002301220C
:10FBD0001A604FF080420123C2F81835024A1370B0
:10FBE000704700BF00E100E0706D002008B54FF4E1
:10FBF0008070FFF7CFFF4FF080430122C3F804234A
:10FC00001A6008BD4FF08042012108B54FF48070A2
:10FC1000C2F80813FFF7BEFF5160D2F80C3403F0AE
:10FC20000113B3F1011FF8D0014B00225A7108BD36
:10FC3000686D002010B54FF08041D1F8003163B1FC
:10FC40004FF48070FFF7A6FF01220D4BC1F8082387
:10FC5000587910B95A711B6898474FF08042D2F812
:10FC6000043163B14FF48270FFF794FF0223C2F8AE
:10FC70000833034BBDE810401B680120184710BD36
:10FC8000686D002000F1804382B01A68002A14BF1A
:10FC90000120002004D000221A601B680193019B00
:10FCA00002B070470E4A1378C3B903784FF0804111
:10FCB000C3F34003C1F88035037803F00103C1F8B2
:10FCC0007835084B1968C90704D4C02183F800139C
:10FCD00001211960012313700020704785207047AF
:10FCE000806D002000E100E0014B02681A6070475F
:10FCF0007C6D00204FF080434FF46072C3F8042302
:10FD000070474FF080434FF46072C3F80823704788
:10FD1000014B00221A6070477C6D002010B54FF037
:10FD20008043D3F80443620707D54FF48470FFF78C
:10FD3000A9FF10B11E4B1B689847A30608D54FF4C6
:10FD40008A70FFF79FFF18B11A4B00201B68984775
:10FD5000600608D54FF48C70FFF794FF18B1154B6F
:10FD600001201B689847210608D54FF48E70FFF7D5
:10FD700089FF18B1104B00201B689847E20508D591
:10FD80004FF49070FFF77EFF18B10B4B01201B68FA
:10FD90009847A3050AD54FF49270FFF773FF28B177
:10FDA000054BBDE810401B680220184710BD00BF7E
:10FDB000746D0020786D00207C6D002008B5FFF781
:10FDC000ADFFBDE80840FFF735BF0000020713D4C0
:10FDD00000F00F0310F0800F084A0BBF03F5887383
:10FDE00003F5847302EB830252F8230008BF5068C6
:10FDF000431E58425841704700207047007002402F
:10FE000010F0080F074B06D0D3F8C00410F4803F61
:10FE100018BF0020704700F00F0000F5947053F8F1
:10FE200020007047007002404FF08053D3F830013B
:10FE3000A0F1080358425841704700004FF080532A
:10FE4000D3F83021082A06D1D3F83431052B04D851
:10FE5000034AD05C7047002070470120704700BF04
:10FE600092740F0030B54C689C4209D20025456061
:10FE70000968016093420CD1201E18BF012030BDDB
:10FE800043600D6805600868E41A18444C60086017
:10FE9000F0E70020F3E74B689A4228BF1A460B6848
:10FEA000C0E9003248680B68801A48601344003883
:10FEB0000B6018BF012070474B689A4228BF1A4652
:10FEC00062B10B68C0E900324B689B1A4B600B684B
:10FED000101E13440B6018BF012070471346F1E752
:10FEE000054B10F0800FA3F1900208BF134600F0FD
:10FEF0000F0003EB00107047F46E0020C343C3F300
:10FF0000C01300F00F0000EB0310704708B5FFF7B7
:10FF10008BFF18B1034B0022C3F81C2C024B0022AC
:10FF20001A7008BD00700240826D002007B5074AB4
:10FF300000231370064A137001230193054B01A897
:10FF40001B68984703B05DF804FB00BF816D00207B
:10FF5000886F0020846F002070470000F8B54B6860
:10FF60000B4F9A4228BF1A460C46154606460968AA
:10FF7000384606F095F8C6E9007560682368401BAE
:10FF800060602B440038236018BF0120F8BD00BF1B
:10FF90008C6F002070B54B689A4228BF1A460646FF
:10FFA0000D46144682B10968084806F079F8074BF7
:10FFB000C6E900346B681B1B6B602B68201E234452
:10FFC0002B6018BF012070BD1346F1E78C6F002035
:10FFD00008B50020FFF72EF80A4BD3F8001C0322C7
:10FFE00061B949F27531C3F8001CC3F8142DC3F888
:10FFF000001CBDE808400020FFF71EB8C3F8142D10
:02000002F0000C
:10000000F7E700BF00E0064008B50020FFF712F850
:100010000A4BD3F8001C61B949F27532C3F8002CC1
:10002000C3F8141DC3F8002CBDE808400020FFF7FA
:1000300003B80022C3F8142DF6E700BF00E0064025
:1000400008B50146FFF762FF0846FFF749FF827BCC
:10005000032A0AD10846FFF751FF01218140BDE87C
:1000600008400448C943FFF789BD0368002BF1D05D
:1000700008BD00BFF06D00208720FFF7E1BF86209C
:10008000FFF7DEBF8520FFF7DBBF8420FFF7D8BF77
:100090008320FFF7D5BF8220FFF7D2BF8120FFF773
:1000A000CFBF000008B5FFF731FF084B93F89E2043
:1000B000032A06D1BDE8084005486FF00101FFF7AB
:1000C0005DBDD3F89030002BF4D008BD646E0020E5
:1000D000F06D002073B5012202FA01F51E491F4E92
:1000E0000B6810F0800F43EA050304460B6027D02D
:1000F00000F00F021A4B33F8123003F1804303F57E
:100100001C331A684AB100221A60BFF36F8FBFF325
:100110004F8F802811D0FFF793FF33682B400AD10F
:1001200006228DF804208DF806408DF807300D4B1F
:1001300001A81B68984702B070BDFFF7B3FFECE75A
:1001400033681D42F7D106238DF804308DF8060080
:100150008DF80720EBE700BF606E0020F06D0020F7
:10016000A2740F00846F002008B5054B1A78104662
:10017000FFF7C4FEBDE8084001461046FFF7AABFDE
:10018000886F0020FFF78EBF07B500238DF804307D
:100190000B4BD3F82025ADF80620D3F8C034094A1C
:1001A000002B13680CBF4FF480714FF001210B43FB
:1001B0001360054B01A81B68984703B05DF804FB6A
:1001C00000700240606E0020846F002007B5FFF7CA
:1001D0009DFE0D4B93F88E20032A11D0D3F880306A
:1001E00073B90A486FF08071FFF7C8FC06238DF8D9
:1001F00004300823ADF80630054B01A81B6898476A
:1002000003B05DF804FB00BF646E0020F06D0020B9
:10021000846F002007B5FFF779FE114B93F81E217C
:10022000032A07D10F486FF4807103B05DF804EB27
:10023000FFF7A4BCD3F8103173B90A486FF480718A
:10024000FFF79CFC06238DF804308823ADF80630B8
:10025000054B01A81B68984703B05DF804FB00BF7D
:10026000646E0020F06D0020846F00202DE9F04FB7
:100270005D4E337885B0002B6DD15C4C5C4B1968BA
:100280002368194067D011F0012367D093FAA3F1D6
:10029000002966D0B1FA81F10F2964D9A1F11008C3
:1002A0005FFA88F84046FFF71BFE4FFA88FA4FF0D6
:1002B000010B0BFA01FBBAF1000F81466FEA0B0B41
:1002C00054DA03688289416802A8984708B9C9F8D6
:1002D0000000FFF7A9FD18B1464B8222C3F81C2C81
:1002E000012333702368039A029903EA0B03236006
:1002F000D9F80830BAF1000F1344C9F8083008F0F3
:1003000008003C4B08F00F085EDA002854D0C3F810
:10031000A016C3F8A426042303EB880303F180434B
:1003200003F51C3301221A60BFF36F8FBFF34F8FA9
:10033000314B324A2F4913EA2A0338BF134633F8A8
:10034000183003F1804303F51C331A681AB9D1F849
:100350000021002AF9D005B0BDE8F08F91FAA1F193
:1003600096E720219AE741F080089BE74046FFF797
:1003700047FDB9F80C20D9F80410D9F8005003460D
:10038000074602A8A847029A002A9FD0039A9742DC
:100390009CD9022789F80E7059461548FFF7EEFBE5
:1003A00006238DF80430164B8DF806801B688DF8F7
:1003B000077001A8984761E7142000FB0833C3F8D1
:1003C0000016C3F80426A6E728B1C3F8A017C3F89F
:1003D000A4272823A0E7142000FB0833C3F8001744
:1003E000C3F80427F5E700BF826D0020606E00208F
:1003F000F06D002000700240A2740F00BE740F0068
:10040000846F002037B50446FFF780FD2046FFF7D4
:1004100067FD837B032B0DD12046FFF76FFD012184
:100420008140C9430F48FFF7A9FB03B0BDE8304046
:10043000FFF71CBF0568002DF7D12046FFF75EFDD2
:1004400001218140C9430748FFF798FB06238DF837
:100450000430054B8DF806401B688DF8075001A845
:100460009847E2E7F06D0020846F00200720FFF737
:10047000C9BF0620FFF7C6BF0520FFF7C3BF042092
:10048000FFF7C0BF0320FFF7BDBF0220FFF7BABFD1
:100490000120FFF7B7BF000038B5134BD3F86C4409
:1004A000C3F86C44BFF36F8FBFF34F8F01251CB9A6
:1004B000BDE83840FFF7DABE94FAA4F171B1B1FAA1
:1004C00081F30F2B19460BDDA1F11000C0B205FA24
:1004D00001F324EA0304FFF7FDFDE8E72021F3E739
:1004E00043F08000F3E700BF0070024013B51D4BDE
:1004F000D3F80044C3F80044BFF36F8FBFF34F8FAE
:10050000BFF36F8FBFF34F8FE10508D5164B012264
:100510001A7002230193154B01A81B689847A20586
:1005200008D5114B00221A70032301930F4B01A829
:100530001B689847630513D50B4B1A7882B10022CC
:100540001A70084B0122C3F808259A65BFF36F8F14
:10055000BFF34F8F04230193044B01A81B689847F6
:1005600002B010BD00700240816D0020846F002039
:10057000024A00231360024A13707047846F002000
:10058000836D002008B5454B4FF40062C3F800248A
:10059000BFF36F8FBFF34F8FFFF750FC08B1FFF72A
:1005A00017FDFFF741FC98B10020FEF743FD3C4BDF
:1005B000D3F8001CC022002967D149F27531C3F875
:1005C000001CC3F8142CC3F8001C0020FEF734FDF7
:1005D000324B0122C3F80025BFF36F8FBFF34F8F5B
:1005E000D3F800241205FBD54FF40062C3F80024B1
:1005F000BFF36F8FBFF34F8FFFF716FC90B1002052
:10060000FEF718FD264BD3F8001C002940D149F213
:100610007532C3F8002CC3F8141CC3F8002C00205A
:10062000FEF70AFDFFF70AFC30B1FFF7EDFCFFF71C
:1006300005FC08B1FFF7CCFCFFF7F6FB174B50B1F8
:1006400040F2E372C3F800284022C3F80428BFF345
:100650006F8FBFF34F8F00218022C3F81C25C3F892
:100660003015104B40F2FF121A600F4B1960FFF764
:100670004DFC0E4B19700E4B02221A70FFF7DEFB79
:1006800050B1BDE80840FFF7BFBCC3F8142C9CE78D
:100690000022C3F8142CC2E708BD00BF007002405E
:1006A00000E00640606E0020F06D0020886F0020A2
:1006B000836D00200C4B00221A700C4A0C4B002852
:1006C00018BF13460B4AC2F804330B4BC02183F802
:1006D0002713802159600123C2F80435BFF36F8FBF
:1006E000BFF34F8F704700BF816D00200714E001FA
:1006F0000714C0010070024000E100E0024B1878CE
:10070000003818BF01207047836D0020034B187814
:10071000012894BF00200120704700BF836D002096
:1007200010B50020FEF786FC134B1B7803F0FF0486
:10073000BBB1124AD2F82C35DBB10023C2F82C35FC
:10074000FFF772FB68B10E4BD3F8001CC02269B9E9
:1007500049F27531C3F8001CC3F8142CC3F8001C0F
:1007600004460020FEF768FC204610BDC3F8142C98
:10077000F6E71C46F5E700BF816D002000700240DF
:1007800000E00640024B034AC3F80823704700BF4D
:100790000070024004148001024B034AC3F8042392
:1007A000704700BF0070024004148001014B00221A
:1007B0001A707047816D002008B5FFF791FB8181A9
:1007C00008BD000073B51D4B1C78002C33D11C4AAA
:1007D000106001221A702546264615F0080F65F0B4
:1007E0007F00C0B20CBF40214FF400710190FFF7B1
:1007F000E3FF0198FFF774FB0135092D867306604E
:100800008660EAD1402100252046FFF7D5FF20462B
:10081000FFF766FB0134E4B2092C8573056085603F
:1008200002D1002002B070BD14F0080F14BF4FF4C5
:1008300000714021E8E70820F4E700BF836D002045
:10084000846F002008B5FFF74BFB808908BD0000CE
:10085000064A10F0800F00F00F0314BFD2F8100505
:10086000D2F81405D84000F0010070470070024033
:100870002DE9F843064600200F46FEF7DBFB16F095
:100880000F0503D1294B1B78B3424BD1284BDFF81E
:10089000C4801C68D8F80030E443A4B230461C433E
:1008A000FFF72CFB4FF0010909FA00F914EA0904DB
:1008B0003AD13046FFF714FB0C225543320603466B
:1008C0002CD51C4A3968154401F06041BA68B1F171
:1008D000005F02F001021CD1CAB9174A1A6097E8FA
:1008E000070085E8070000229A609A735D60D8F8D7
:1008F000003043EA0903C8F80030104B8022C3F8E7
:1009000004210020FEF798FB2046BDE8F8830C4A3E
:10091000E4E70AB90B4AE1E70B4ADFE70B4A154463
:100920000B4ADBE71024ECE71124EAE7886F00208C
:10093000606E0020F46D002097FE0E0000E100E0E4
:10094000B9FE0E005DFF0E0095FF0E00846D0020C5
:1009500065FE0E00F06D0020F8B5064600200D463D
:10096000FEF768FB330703D1154B1B78B34222D146
:10097000144B154F1C683B68E443A4B230461C433B
:10098000FFF7BCFA012181400C4016D13046FFF739
:10099000A7FA84602B6803606B6843603B688473CC
:1009A0000B433B60094B8022C3F804210020FEF773
:1009B00043FB2046F8BD1024F8E71124F6E700BFFA
:1009C000886F0020606E0020F06D002000E100E0E4
:1009D000004870478C6F0020044B40F48070C3F8CF
:1009E0001805BFF36F8FBFF34F8F70470070024041
:1009F000FFF7ECB9064BC3F80C05BFF34F8F40F47B
:100A00008070C3F80C05BFF36F8FBFF34F8F704733
:100A10000070024010B508220021044605F068FB72
:100A20000E4BD3F880242270D3F884246270D3F85C
:100A30008824D3F88C1442EA01226280D3F89024EF
:100A4000D3F8941442EA0122A280D3F89824D3F870
:100A50009C3442EA0323E38010BD00BF00700240D3
:100A6000034B0122DA64BFF36F8FBFF34F8F7047E0
:100A70000070024013B5FFF749FA114B9A7B032A25
:100A800007D110486FF4803102B0BDE81040FFF785
:100A900075B81C687CB96FF480310A48FFF76EF8AE
:100AA00006238DF80430084BADF806401B6801A8FA
:100AB000984702B010BD02B0BDE81040FFF7D0BFAC
:100AC000646E0020F06D0020846F0020034B012233
:100AD0001A65BFF36F8FBFF34F8F704700700240EE
:100AE000034B01225A65BFF36F8FBFF34F8F7047DF
:100AF00000700240014B1878704700BF886F0020DB
:100B000010B504460020FEF795FA2046FFF7F6F9E7
:100B10000D4A012303FA00F0136823EA000313606F
:100B200014F008020AD104F00F04084B04F5947481
:100B300043F82420BFF36F8FBFF34F8FBDE8104001
:100B40000020FEF779BA00BF606E002000700240FE
:100B5000F7B504460020FEF76DFA2046FFF7C0F90E
:100B600005462046FFF7CAF9012214F0800F02FA69
:100B700000F22E4819D1036832EA03030AD0204656
:100B8000FFF7BEFF0323AB73002003B0BDE8F040C6
:100B9000FEF752BA2B600368254923EA020303607B
:100BA0000B6823EA02030B60ECE7230715D4802CC3
:100BB000204B2ED004F00F0101F2DA314900C3F8C6
:100BC0000018D3F80418D3F80468C9B241F0020140
:100BD0003143C3F80418D3F80438154E016833685C
:100BE00061EA03071742CFD0134321EA02013360C1
:100BF000002301602B600323AB738DF807300E4B8D
:100C00008DF8064006221B688DF8042001A898473D
:100C1000BAE740F2B471C3F80018D3F80418D3F857
:100C20000468C9B241F00401D2E700BFF06D0020B2
:100C3000606E002000700240846F0020FFF788BFC4
:100C400073B5154B154CD3F880542368144EDA4312
:100C5000144B31781B6892B208461A43FFF74EF9DD
:100C6000012303FA00F0104202D00846FFF770FF9C
:100C70006FF0011105F080050A483570FEF77EFF20
:100C8000236843F00103236005230193064B01A869
:100C90001B68984702B070BD00700240606E002073
:100CA000886F0020F06D0020846F00202DE9F04156
:100CB0001B4BD3F80413002301241D4671B9194FAF
:100CC00003F4000623F400044FF00108D4B9FFF741
:100CD000CDFA1EB3BDE8F041FFF7B2BF91FAA1F221
:100CE0001148B2FA82F29600304404FA02F2066821
:100CF0002EB10560BFF36F8FBFF34F8F134321EA0F
:100D00000201DBE794FAA4F5B5FA85F557F825302A
:100D100008FA05F5984724EA0504D7E7BDE8F0810D
:100D200000700240D0740F0000710240F8B5134EFD
:100D3000134B34681B68240C24041C4301271CB982
:100D400040F2FF133360F8BD94FAA4F585B1B5FA0B
:100D500085F30F2B1D460DDDA5F11000C0B2030772
:100D600001D4FFF7F5FE07FA05F524EA0504E6E7E6
:100D70002025F1E743F08000F1E700BF606E00201E
:100D8000F06D002038B50E4C8025C4F8845163689E
:100D90001B0613D5FFF7CAFF0A4B0022C3F8042530
:100DA000BFF36F8FBFF34F8FC4F88450BFF34F8FE3
:100DB000BFF36F8F4FF0FF32C3F8082338BD00BF79
:100DC00000E100E00070024008B5FFF7DBFF094BCF
:100DD000D3F80423C3F808230022C3F80025BFF387
:100DE0006F8FBFF34F8FFFF791F8034B01221A70FB
:100DF00008BD00BF00700240836D002010B50020C8
:100E0000FEF718F90E4B1B7803F0FF042BB90024F2
:100E10000020FEF711F9204610BDFFF787FF094AB1
:100E2000D2F8003413F40073F1D10121C2F82C156B
:100E3000D2F80014890544BFC2F82C351C46E7E7F8
:100E4000816D00200070024010B50446FFF780FE5F
:100E5000134A04F00F0064B2002C4FF00103B4BF3A
:100E6000D2F81015D2F8141503FA00F36FEA030351
:100E7000B5BF0B400B40C2F81035C2F81435BFF3B4
:100E80006F8FBFF34F8F074A074B13EA240338BF16
:100E900013461A5C01239340014AC2F8083310BD7F
:100EA00000700240B4740F0098740F0038B5254AE2
:100EB000254B45B2002DA8BF134600F00F01044694
:100EC000585C224A4FF0010303FA00F0C2F8040311
:100ED0002ADAD2F81005C840C00731D4D2F810057C
:100EE0008B400343C2F81035BFF36F8FBFF34F8FB2
:100EF00031B3002D24DB14F0080521D12846FEF77C
:100F000099F82046FFF7FCFD2046FEF7F7FF104A50
:100F1000012303FA00F0136823EA00031360284654
:100F2000BDE83840FEF788B8D2F81405C840C007BD
:100F300006D4D2F814058B400343C2F81435D3E726
:100F400038BD00BFB4740F0098740F0000700240E9
:100F5000F06D0020030610B5044605D4FEF736FFF9
:100F600010B12046FFF7CCFD034BC3F81845BFF383
:100F70006F8FBFF34F8F10BD0070024028B139B1A1
:100F80000023C1E900301846704748F210507047FE
:100F900048F21350704730B1036848F240508B421A
:100FA00008BF0020704748F21050704728B148F23F
:100FB0001150914208BF0020704748F2105070470E
:100FC00070B506460C461D46FFF7D8FF50B9B379F9
:100FD0004AB1AB420AD111462046FCF755F908B98F
:100FE000044B236070BD48F21050FBE748F21150EB
:100FF000F8E700BF7052464D2DE9F0470C46054614
:1010000011492046DDE9088916461F46FFF7C3FF50
:10101000A8B963685A79494652004046FFF7C6FFAF
:1010200068B956B16DB1CDF820803B4632462146B5
:101030002846BDE8F047FCF737B948F21050BDE844
:10104000F08748F21550FAE77052464D10B5044645
:1010500038B149B141600B68984708B9044B236027
:1010600010BD48F20150FBE748F21050F8E700BF0E
:101070006E524648F0B4134648B10768094EB7426D
:101080000AD161B12AB14368F0BC5B68184748F2E5
:1010900001531846F0BC704748F20253F9E748F292
:1010A0001053F6E76E524648F0B460B107680C4E34
:1010B000B7420CD171B143681568DC68A5420CD306
:1010C000F0BC9B68184748F20150F0BC704748F2EA
:1010D0000250FAE748F21350F7E748F21450F4E7E9
:1010E0006E524648F7B50446DDE908671546019398
:1010F000FFF7ACFF68B9019A29462046FFF7BAFF0F
:1011000038B93A463146204603B0BDE8F040FFF713
:10111000CBBF03B0F0BD0000F8B50A4F0A4C0B4E30
:10112000E41B0123E40833700025A54203D1022308
:1011300033700020F8BD57F8353098470028F9D1B2
:101140000135F2E7C0940F00C8940F00CC6F002067
:1011500001390144814200D2704703780A7800F8CF
:10116000012B01F80139F5E7013A024401398242C5
:1011700000D2704711F8013F02F80139F7E770B566
:1011800016460D46FFF7F0FF3246A9193044BDE878
:101190007040FFF7E9BF38B50D460446FFF7D8FFAA
:1011A00029466019BDE83840FFF7D2BF08B50728C7
:1011B0001BD8DFE800F004121A1A1A041A040120DE
:1011C000FBF72BFF0020FBF7F1FE0120FBF7EEFE03
:1011D000BDE808400220FBF7FDBE0120FBF7FAFE48
:1011E000BDE808400220FBF7E1BE08BD08B5FBF7EB
:1011F000A5FDFBF795FB0028FBD10B4D642445F0C2
:1012000001054FF47A40A847013CFAD1BFF34F8F54
:101210000649074BCA6802F4E0621343CB60BFF390
:101220004F8F00BFFDE700BFC0750F0000ED00E06D
:101230000400FA0508B50649064B5B1ADB081B04D7
:101240000246054943F00100FBF7B8FCFFF7CEFF6B
:10125000D0940F00E0940F0074750F0010B500F0EB
:10126000E7FD4FF48051002000F006FA08B1FFF7C7
:10127000E1FF1548C0F57E2100F0FEF90146002887
:10128000F5D11248124CFBF7F9FAFBF735FA114B7E
:101290001149E41AE408240444F00300FBF78AFC33
:1012A0000E4800F0A7F80028E1D1FBF739FB002831
:1012B000FBD10B4944F00100FBF77CFCFBF730FB52
:1012C0000028FBD1D3E700BF00C00E00A1190F001A
:1012D000E0940F00D0940F008F750F00AD110F0038
:1012E0009B750F00014B01221A707047F0730020AC
:1012F00008B5FBF723FDFBF713FB0028FBD1BFF379
:101300004F8F0549054BCA6802F4E0621343CB6076
:10131000BFF34F8F00BFFDE700ED00E00400FA05CA
:1013200008B50948094B0A49C01AC008000440F032
:101330000400FBF73FFC074B074800221A70BDE88A
:10134000084002F0EBB800BFE0940F00D0940F000B
:10135000C6750F00F0730020F1120F0008B50748A2
:10136000074B0849C01AC008000440F00300FBF70F
:1013700021FCBDE80840FFF7D3BF00BFE0940F0099
:10138000D0940F00DC750F00042810B5044609D86E
:1013900002280DD812D00B4B1B6893B12046BDE834
:1013A00010401847831F012BF5D8FFF7B9FFF2E76C
:1013B00005494FF4701000F0B3FAECE701F094FF28
:1013C000E9E710BDF47300205D130F0008B506486F
:1013D000064B0749C01AC008000440F00400FBF7A0
:1013E000E9FB002008BD00BFE0940F00D0940F007F
:1013F000F0750F00F8B56A4B6A4C6B49E41AE408C3
:10140000240444F0040705463846FBF7D3FB674B3A
:10141000674A1D604FF0A0430020C3F8642702F024
:1014200093F8002840F0B68000F01AFC012800F084
:10143000AA80022800F0B080002840F0AB804FF076
:101440008043D3F8005415F4803548D04FF48032EF
:10145000C3F800240546574E336A012B4DD0564938
:1014600044F00300FBF7A6FB54493846FBF7A2FB08
:101470004FF4701400F03AFD514A20211820FCF777
:101480002DF808B1FFF7D6FE4FF08043D3F81C25A6
:1014900002F0F902B12A02BFD3F81C2502F04E0275
:1014A000C3F81C25FFF792FF002873D12046454959
:1014B00000F036FA444801F039FA00286AD143496D
:1014C0003846FBF777FB00F057FDFCF78DF8FBF78C
:1014D00027FA0028F7D120BF40BF20BFF3E7D3F899
:1014E000202502F0F902A92A03BFD3F8202502F033
:1014F0005602C3F820250125ADE74FF440535A6842
:10150000334B9A420FD1726B1DB996F86032012BA2
:1015100009D030484FF4805102F046FE18B92E49E8
:1015200044F002009EE702F01BF9B26901461DB9C2
:1015300096F8A132012B05D0284802F035FE08B9F3
:101540002749EDE727493846FBF734FB4FF0A04326
:10155000D3F810359B0101D4234986E74FF080432F
:10156000D3F81C3503F0F903B12B01D11F497CE7F7
:1015700002F018F870B91E4B18701E4801F0CEFF2B
:1015800000F03CF801E0FFF7CBFE1B4944F00100FE
:10159000FBF710FB0320F8BD4FF4A0246AE700BF5F
:1015A000D0940F00E0940F000A760F00F47300202F
:1015B0000C0003001C7B002021760F00BF760F007B
:1015C000D06F00205D130F0089130F002E770F00DE
:1015D000DBE5B1517C7D00204F760F00BD7D002002
:1015E0008A760F00B2760F00E2760F0001770F00C7
:1015F000F0730020E5120F0022770F0037B5164B6D
:10160000164C174D1749E41AE408240444F004006A
:101610004FF480520190FBF7D1FAD5F8802012499F
:101620000198FBF7CBFA4FF0FF33C5F88030C5F8CF
:10163000803101F092FA20B10C4944F00100FBF72F
:10164000B9FAFBF76DF90028FBD14FF4805003B0D5
:10165000BDE8304000F032B8D0940F00E0940F00A5
:1016600000E100E03E770F0074770F009E770F00D7
:1016700080F3088808470000C1F30B0270B5B2B9C7
:10168000B0F57F2F13D80C4E3468072C11D82301E6
:1016900003F1804505F5F0350134C5F80008C5F8BB
:1016A00004180221C5F808183460104670BD0722DE
:1016B000FBE70422F9E700BFF873002038B50446C1
:1016C0002148C0F58011FFF7D7FF054668B11F4AD2
:1016D0001F4B20499B1ADB081B04024643F0010004
:1016E000FBF76CFA2846FFF7A5FD02F039F81A4B14
:1016F0009B6903F6FF7323F47F6323F00F0319182C
:101700000020FFF7B9FF054668B1104A104B134996
:101710009B1ADB081B04024643F00100FBF74EFA5C
:101720002846FFF787FDEFF305830023D4E9000186
:1017300083F3148883F3108883F3118883F3138869
:10174000BDE83840FFF794BF00C00E00D0940F00F2
:10175000E0940F00D3770F001C7B00200A780F0065
:101760001FB518490B7853BB4FF08043A024D3F822
:101770001824D2035CBF01229A60134B0022C3F8E5
:101780000021D3F8000103900398C3F84021D3F857
:10179000400102900298C3F84421D3F8440101901B
:1017A00001980A4880F82443102444600220C3F8BA
:1017B000082501229A601A60C3F804030A7004B075
:1017C00010BD00BF007400200040024000E100E0B6
:1017D0001D4A1E4B9B1ADB081B0473B502460546C7
:1017E0000C4643F004001A491A4EFBF7E7F96FF074
:1017F0007F42A242D6F8043528BF2246A11A2C7B8C
:1018000013444A1E942A23F07F4304F5A8729BBF19
:10181000963B96316960696046F822300E4B4FF472
:10182000F86043F0010398470C4BA20013440022D8
:101830001A601B680193019B4FF48033A340C6F8E4
:10184000043302B070BD00BFD0940F00E0940F00CD
:101850003E780F000040024080780F004041024077
:101860002DE9F743254BD3F8042152B124490A68E6
:1018700001320A600022C3F80421D3F80431009336
:10188000009B204D204B214C214EDFF89080DFF84B
:101890006C90204FED1AED082D0445F004053368D7
:1018A000CBB100233360336801932246414628467A
:1018B000019BFBF783F9227B17494FF48033934058
:1018C000C9F8083322462846FBF778F9616851B118
:1018D0002046FFF77DFF0436BE4204F11004DED13E
:1018E00003B0BDE8F083A16811B12046FFF770FF97
:1018F0002368002BEFD09847EDE700BF004002407F
:10190000FC730020E0940F00D0940F002000002012
:10191000404102404841024066780F0054780F0071
:10192000F8B5114A114B124E9B1A3768DB081B049D
:101930003A4604460D4643F004000E49FBF73EF9D3
:101940003A7B4FF4803393400B4AC2F808334CB1D2
:101950003668FFF705FF356021463046BDE8F840A0
:10196000FFF736BFF8BD00BFD0940F00E0940F0022
:101970004000002054780F000040024070B5074B33
:101980001D680E46A8600446FFF7EAFE2E60214659
:101990002846BDE87040FFF71BBF00BF4400002091
:1019A000034A044B1068D3F8043503EB006070471A
:1019B000FC73002000400240014B01221A70704766
:1019C000017400202DE9F341214BDA6A5F6A9D6CB6
:1019D000AC2A1FD15B6B1D44FF1A1E4B1E4E1F4AC3
:1019E0001F490097F61AF608360446F004082B46FD
:1019F0004046FBF7F6F819483A46294604F040FB02
:101A0000044668B917494046FBF7D4F8204602B0AF
:101A1000BDE8F081002DE0D101F0B6FE0546DCE71F
:101A200011493B462A464046FBF7D1F8FAF778FFC2
:101A30000028FBD100F0A0FA3946284601F088F8CA
:101A400004460028E2D0094946F00100DCE700BF67
:101A50001C7B0020D0940F00E0940F0000C00E000B
:101A600086780F00BB780F00F2780F001F790F0007
:101A70002DE9F04F364B2DED028B1646354A9B1A59
:101A800085B0DB081B040293814243F0040308EE97
:101A9000103A05460F460AD12F491846FBF78AF837
:101AA0000024204605B0BDEC028BBDE8F08FA7EB0B
:101AB00005084FEA183800F019FAB8F1080F28BFE6
:101AC0004FF0080806F6FF7A4FEA08334FEA1A3A51
